:020000040800F2
:100000005015002099010008331800080515000854
:100010003118000829020008651C000800000000D3
:1000200000000000000000000000000001010008C6
:10003000330200080000000045010008991900087B
:10004000B3010008B3010008B3010008B3010008C0
:10005000B3010008B3010008B3010008B3010008B0
:10006000B3010008B3010008B3010008B3010008A0
:10007000B3010008B3010008B3010008B301000890
:10008000B3010008B3010008B3010008B301000880
:10009000B3010008B3010008B3010008B301000870
:1000A000B3010008B3010008B3010008B301000860
:1000B000B3010008B3010008451A0008B3010008A5
:1000C000B3010008B3010008B3010008B301000840
:1000D000B3010008B3010008B3010008B301000830
:1000E000B3010008B3010008B3010008DFF80CD029
:1000F00000F088F800480047AD1C000850150020AB
:10010000224B19680868B0E8F00F80F30988BFF344
:100110006F8F4FF0000080F311884EF00D0E704786
:100120000000000006480068006880F3088862B696
:1001300061B6BFF34F8FBFF36F8F00DF00BF00BF0B
:1001400008ED00E0EFF30980BFF36F8F0F4B1A68E3
:1001500020E9F00F106008B54FF0500080F31188CF
:10016000BFF34F8FBFF36F8F02F056F94FF00000CF
:1001700080F31188BDE8084019680868B0E8F00FFE
:1001800080F30988BFF36F8F704700BF2400002001
:10019000EFF3058070470000064880470648004797
:1001A000FEE7FEE7FEE7FEE7FEE7FEE7FEE7FEE727
:1001B000FEE7FEE7411A0008ED00000840EA0103EF
:1001C0009B0703D009E008C9121F08C0042AFAD20D
:1001D00003E011F8013B00F8013B521EF9D27047D1
:1001E000D2B201E000F8012B491EFBD27047002279
:1001F000F6E710B513460A4604461946FFF7F0FF26
:10020000204610BD064C074D06E0E06840F00103B3
:1002100094E8070098471034AC42F6D3FFF76AFF22
:10022000B8290008D8290008FEE7012001F059FD8F
:10023000FBE7704772B6FEE72DE9F84FDFF8B8919B
:10024000002409F1040A0AF1040B23460F270BF1DD
:10025000040EC9E00125A5402A40AA427DD1674E7F
:10026000D1F804C0ACEB0608B44532D014DCBCF1C4
:10027000030F3AD009DCBCF1000F2AD0BCF1010F0A
:100280001CD0BCF1020F31D11DE0BCF1110F17D011
:10029000BCF1120F2AD119E0B8F5881F19D006DC7D
:1002A000B8F5803F15D0B8F5801F1FD111E0B8F523
:1002B000001F0ED0B8F5041F18D10AE0CB6815E076
:1002C000CB681B1D12E0CB6808330FE0CB680C3302
:1002D0000CE08B682BB1012B4FF0080303D0456174
:1002E00004E0042302E0056100E00023FF2A01D8B6
:1002F000064601E000F104064FEA840501D9A5F1A4
:100300002005D6F8008007FA05FC28EA0C0803FA55
:1003100005F548EA0508C6F800804D68ED0062D58D
:10032000374DAE6946F00106AE61AD6924F00306B3
:1003300005F001050095334D06EB050CDCF808507F
:10034000A607360F07FA06F825EA0805DFF8B88091
:10035000404503D14FF0000817E044E0DFF8AC80DF
:10036000404502D14FF001080FE0DFF8A48040457E
:1003700002D14FF0020808E0DFF89880404502D132
:100380004FF0030801E04FF0040808FA06F848EAC5
:100390000508CCF808804D68D9F80060ED034D469B
:1003A00001D5164300E096432E604D68DAF80060F0
:1003B000AD03554601D5164300E096432E604D68C7
:1003C000DBF80060ED025D4601D5164300E0964380
:1003D0002E604D68DEF80060AD02754601D516430B
:1003E00000E096432E60641C0D682A46E5407FF4C9
:1003F00031AFBDE8F88F000000040140000011108B
:10040000001002400000014000080140000C0140C3
:1004100000100140001401400AB101617047090455
:10042000FBE70000014880687047000014000020CE
:1004300002488168027811448160704714000020EE
:10044000074810B5016841F010010160032000F079
:1004500095F8002000F006F800F03EF8002010BDEE
:100460000020024000B5014687B000221E2000F0A7
:1004700065F81E2000F054F81348C16941F00401EA
:10048000C161C06905A900F004000690684600F04B
:10049000FDF900F01BFA0D494000B0FBF1F10D48E9
:1004A0000B4A491E0260416040F2E7320021C0E978
:1004B0000321816000F0ECFD10B1012007B000BD08
:1004C000044800F031FEF9E70010024040420F00FE
:1004D00000080040180400200F4808B5816941F069
:1004E00001018161816901F001010091C16941F05F
:1004F0008051C161C069002200F0805000900F213E
:10050000901E00F01BF80548416821F0E06141F0C1
:100510000071416008BD0000001002400000014071
:10052000002809DB00F01F020121914040098000F2
:1005300000F1E020C0F8001170470000F0B40E4B4D
:100540001B680C46C3F30223C3F10705042D00D931
:100550000425191D072901D2002300E0DB1E012616
:1005600006FA05F1491E214099409E40761E16402C
:100570003143F0BC01F07BBB0CED00E0064900F01C
:10058000070208684FF6FF03184040EA0220034ABA
:1005900010430860704700000CED00E00000FA0511
:1005A000014901200862704700000E4210B529A4DD
:1005B00001461DCC86B08DE81D002AA02A4C00689B
:1005C00004900020012923D002293AD010291DD1FE
:1005D00061682268D20119D5C1F38342C9031DF8AD
:1005E000020009D5616804AAC1F34041515C1F4A69
:1005F000B2FBF1F1484301E01D49484361684902FB
:1006000004D440005FF00301B0FBF1F006B010BD70
:10061000226AC2F30121012903D1920701D5C8033F
:10062000F4E7022905D1626A920702D549F64040F3
:10063000ECE70329EAD121688903E7D54FF224408A
:10064000E4E700F053F96168C1F38131491C4900C6
:10065000DAE7000002030405060708090A0B0C0D7F
:100660000E0F1010010200000010024000127A006C
:1006700000093D002DE9F84305460078354CC007D8
:1006800054D0E0690026C00008D4E06940F08050F2
:10069000E061E069012600F0805000902E4801687A
:1006A000C90512D40168804641F480710160FFF7EA
:1006B000B9FE074605E000BFFFF7B4FEC01B642883
:1006C00023D8D8F80000C005F6D5206A10F4407091
:1006D00021D0A98801F4407181421CD0206A1F49B1
:1006E000012220F440700A6000220A602062C007E4
:1006F00011D0FFF797FE074641F2883808E000BFA7
:10070000FFF790FEC11B414502D90320BDE8F883E5
:10071000206A8007F4D5206A696820F44070084395
:1007200020621EB1E06920F08050E06128788007E7
:1007300005D56068A96820F44040084360602878C7
:10074000C00605D56068E96820F480000843606051
:100750000020DBE7001002400070004040044242ED
:100760002DE9F0470F46050061D0434E306800F098
:100770000700B84209D2306820F0070038433060E3
:10078000306800F00700B84251D128683B4C81071F
:1007900012D5400703D5606840F4E06060602878B7
:1007A000000703D5606840F4605060606068A96825
:1007B00020F0F000084360602878C00728D06868FF
:1007C000012810D02168022810D0890700292EDACC
:1007D000616821F0030101436160FFF723FE804659
:1007E00041F288390DE021688903EFE78901EDE7DF
:1007F000FFF718FEA0EB0801494502D90320BDE828
:10080000F0876068696800F00C00B0EB810FEFD1F1
:10081000306800F00700B8420BD9306820F00700BC
:1008200038433060306800F00700B84201D0012042
:10083000E5E72878400705D56068E96820F4E060BE
:10084000084360602878000706D56068296920F4AD
:10085000605040EAC100606000F058F86168084AE2
:10086000C1F30311515CC84006490860064800689E
:10087000FFF7F8FD0020C2E7002002400010024010
:100880008429000820000020180000200F220260A8
:100890000C4A536803F003034360536803F0F0030A
:1008A0008360536803F4E063C36052684FF4E0630D
:1008B00003EAD20202610448006800F00700086001
:1008C0007047000000100240002002400448054923
:1008D00000684968044AC1F30221515CC84070476E
:1008E0002000002000100240942900080448054917
:1008F00000684968044AC1F3C221515CC84070478E
:1009000020000020001002409429000812A185B0A8
:100910000FC98DE80F0014A0144A006804905168B4
:10092000134801F00C03042B10D0082B0ED1C1F397
:100930008343C9031DF803000AD5516804AAC1F313
:100940004041515C0A4A5043B0FBF1F005B070479A
:1009500008494843FAE700000203040506070809AE
:100960000A0B0C0D0E0F10100102000000100240C7
:1009700000127A0000093D002DE9F84F040070D004
:100980002078C04DC00749D06868C0F381000128B5
:1009900007D06868C0F38100022809D16868C003E5
:1009A00006D52868800339D560680028E7D035E08F
:1009B0006068B0F5803F0BD010B1B0F5A02F11D01A
:1009C000286820F480302860286820F4802002E025
:1009D000286840F480302860606890B1FFF722FDFD
:1009E00006460AE0286840F480202860F0E700BF4F
:1009F000FFF718FD801B642873D828688003F7D59B
:100A00000CE0FFF70FFD064605E000BFFFF70AFD0B
:100A1000801B6428F0D828688003F7D420789A4E89
:100A200080074FF001094FF0000839D5686810F0D1
:100A30000C0F07D06868C0F38100022809D16868EC
:100A4000C00306D42868800714D52069012808D17E
:100A500010E02069B0B1C6F80090FFF7E3FC07464C
:100A600005E00AE1FFF7DEFCC01B0228C4D82868B5
:100A70008007F7D52868616920F0F80040EAC100D6
:100A800028600DE0C6F80080FFF7CCFC074604E0C4
:100A9000FFF7C8FCC01B022823D828688007F7D4BA
:100AA000207800072CD57948A169D9B1C0F8009009
:100AB000FFF7B8FC074604E0FFF7B4FCC01B0228B0
:100AC0000FD8686A8007F7D571484FF4FA5100686B
:100AD000B0FBF1F0009000BF0098411E0091FAD2E7
:100AE0000EE080E0C0F80080FFF79CFC074604E0C1
:100AF000FFF798FCC01B022875D8686A8007F7D4F6
:100B00002078400760D5E8690027C00008D4E8696C
:100B100040F08050E861E869012700F080500090C3
:100B20005C480168C90513D40168834641F48071AB
:100B30000160FFF777FC824606E000BFFFF772FC1A
:100B4000A0EB0A0064284ED8DBF80000C005F5D5FC
:100B5000E06801280AD008B1052813D0286A20F0DF
:100B600001002862286A20F0040002E0286A40F0B0
:100B700001002862E06841F2883B98B1FFF752FC1F
:100B800082460BE0286A40F004002862EEE700BFCE
:100B9000FFF748FCA0EB0A0159455AD8286A80079C
:100BA000F6D50CE0FFF73EFC824605E0FFF73AFC85
:100BB000A0EB0A0159454CD8286A8007F6D41FB12A
:100BC000E86920F08050E861E06988B36968C1F3A2
:100BD0008101022944D00228C6F8608004D0FFF7C2
:100BE00021FC044638E034E0FFF71CFC074604E033
:100BF000FFF718FCC01B02282BD828688001F7D407
:100C0000206AB0F5803F05D16868A16820F4003003
:100C100008436860D4E908010843696821F4741145
:100C200008436860C6F86090FFF7FCFB044606E0E6
:100C300025E000BFFFF7F6FB001B022809D8286853
:100C40008001F7D51BE000BFFFF7ECFB001B02287B
:100C500002D90320BDE8F88F28688001F4D40EE0A3
:100C60000128F7D06868226A00F48031914204D1EB
:100C7000616A00F47010884201D00120EAE7002088
:100C8000E8E70000001002400000424280044242B7
:100C9000200000200070004070B5040003D0607C8C
:100CA000002610B105E0012070BD2674204600F03A
:100CB00043F802206074204600F010F9042578BB48
:100CC000204600F0C4FD58BB2068416821F00701B0
:100CD0004160A06820B11748016821F0010101605E
:100CE0001448001F0168A26821F46071114301607B
:100CF0006068411C04D10120FFF758FC80B1401E00
:100D000021688A6822F00F0242EA10428A60216854
:100D1000CA6860F30F02CA60204600F0B3FD08B154
:100D20006574C0E7E67301206073A07360740020EF
:100D300070BD0000306C004008B50068084988426A
:100D40000DD1FFF72DFC0748C16941F00061C16179
:100D5000C069054900F0006000900120086008BDEE
:100D600000280040001002403C0442422DE9F041BE
:100D70000D4604003BD0C5B3207C01283AD04FF08B
:100D8000010884F8108002206074E87872B300F0E3
:100D900051FDE073687800F04DFD6073A87800F0B5
:100DA00049FDA073C2B2617BE07B00F09DFD207322
:100DB0002870204600F088FD4FF46161B0FBF1F12E
:100DC000002518292DD91822B1FBF2F1A1EB011150
:100DD00001EB4101C1EB011100EBC1163146204688
:100DE00000F0C1FD0427C8B90BE000E004E00120D9
:100DF000BDE8F0810220FBE7E07368786073A878B3
:100E0000CFE7204600F059FD411C0AD0B04208D27D
:100E100006490144204600F092FD10B16774257424
:100E2000E5E784F8118025740020E1E78051010096
:100E30002DE9F0410D46040024D01DB3207C01288B
:100E400023D04FF0010884F81080022060742878C5
:100E5000EAB100F0EFFC4FF4616100FB01F6687845
:100E600000F0E8FCC0EB001006EB8006A87800F06C
:100E7000E1FC35182946204600F075FD00260427C0
:100E800010BB0FE00120BDE8F0810220FBE74FF42A
:100E9000616148436978C1EB011100EB8100A978D9
:100EA0004518E7E72068416821F0050141602046C8
:100EB00000F003FD411C0AD0A84208D206490144B3
:100EC000204600F03CFD10B167742674DAE784F820
:100ED000118026740020D6E78051010070B504000F
:100EE0000AD02068416821F008014160FFF79AFAB2
:100EF00005464FF47A7608E0012070BDFFF792FABC
:100F0000401BB04201D9032070BD20684068000733
:100F1000F4D5002070BD70B5040009D0606A0025CA
:100F200040B125616561A56294F8510040B10CE0C3
:100F3000012070BD6068B0F5827FF4D0E561F2E712
:100F400084F85050204600F03FF8022084F8510009
:100F50002068016821F040010160A088218900F427
:100F6000827001F404410843A18901F4006108433F
:100F7000217C01F002010843217D01F001010843B9
:100F8000218B01F400710843217F01F038010843EF
:100F900094F8201001F080010843218D01F40051E4
:100FA000084321680860A069042101EA1040216813
:100FB00048602068C16921F40061C1616565012054
:100FC00084F85100002070BD00B585B0002100916B
:100FD00001910291039100680F4988421AD10F488C
:100FE000816941F480518161816901F480510491EA
:100FF000816941F0040181618069694600F0040063
:101000000490B02000900220019003200390044837
:10101000FFF712F905B000BD00300140001002409A
:10102000000801407047704770B590F83C20012AD5
:1010300026D0012480F83C40022280F83D2003683D
:101040005A689D6822F070060A6832435A600D4B58
:1010500002689A4208D0B2F1804F05D00A4B9A42FA
:1010600002D00A4B9A4204D1496825F08003194303
:10107000916080F83D40002180F83C10084670BD2A
:10108000022070BD002C0140000400400008004018
:1010900010B5040003D094F83D0010B107E0012022
:1010A00010BD002084F83C00204600F01FF802200C
:1010B00084F83D00211D206800F0CAFC012084F85E
:1010C000460084F83E0084F83F0084F8400084F82D
:1010D000410084F8420084F8430084F8440084F816
:1010E000450084F83D00002010BD000008B50C4A02
:1010F00001680C48914207D1816941F40061816126
:10110000806900F4006009E0B1F1804F07D1C16946
:1011100041F00101C161C06900F00100009008BD0B
:10112000002C01400010024090F83D10012901D030
:1011300001207047022180F83D100168CA6842F022
:101140000102CA6000680B49884208D0B0F1804FA4
:1011500005D00949884202D00849884204D18168F3
:1011600001F00701062903D0016841F00101016087
:1011700000207047002C014000040040000800409F
:1011800070B5044690F83C00012817D0012584F87A
:101190003C50022084F83D002068826822F07702EB
:1011A00022F47F4282600868502830D00DDC20286D
:1011B0004DD005DC98B310283BD148E0022070BD2B
:1011C000302844D0402834D139E0602828D0702815
:1011D00006D0B0F5805F2CD0B0F5005F29D10AE0D1
:1011E000CB68D1E90121206800F068FC20688168A3
:1011F00041F0770109E0CB68D1E90121206800F0D6
:101200005DFC2068816841F48041816011E0CA681A
:101210004968206800F0A7FC5021206807E016E02C
:10122000CA684968206800F0AFFC6021206800F0BF
:101230004FFC84F83D50002084F83C0070BDCA6823
:101240004968206800F08FFC40212068EFE72268A1
:1012500001461046EBE7704770B504460068016927
:101260004FF00005C943890715D4C168C9438907F0
:1012700011D4E91E01610120207720688069800770
:10128000204602D0FFF7E7FF04E000F098F8204680
:1012900000F096F8257720680169C943490717D4FB
:1012A000C168C943490713D46FF0040101610220EA
:1012B00020772068806910F4407F204602D0FFF735
:1012C000CAFF04E000F07BF8204600F079F82577AB
:1012D00020680169C943090716D4C168C9430907D1
:1012E00012D46FF008010161042020772068C069E2
:1012F0008007204602D0FFF7AEFF04E000F05FF861
:10130000204600F05DF8257720680169C943C906C9
:1013100017D4C168C943C90613D46FF01001016125
:10132000082020772068C06910F4407F204602D052
:10133000FFF791FF04E000F042F8204600F040F88B
:10134000257720680169C943C90708D1C168C94325
:10135000C90704D1891E0161204600F033F82068D6
:101360000169C943090609D4C168C943090605D4FE
:101370006FF0800101612046FFF754FE206801698B
:10138000C943490609D4C168C943490605D46FF069
:1013900040010161204600F04AF820680169C94314
:1013A00089060BD4C168C943890607D46FF02001B0
:1013B00001612046BDE87040FFF735BE70BD704743
:1013C0007047000000680349884201D1FFF730B838
:1013D000704700000008004070B5044690F83C00DB
:1013E000012812D0012584F83C50022084F83D00E9
:1013F000204600F075FB01004FF0000007D084F894
:101400003D5084F83C00012070BD022070BD216871
:10141000CA6822F04002CA602168CA6822F4804289
:10142000CA6084F83D5084F83C00002070BD7047CD
:1014300070B5040004D094F83D00002510B106E01A
:10144000012070BD84F83C50204600F023F8242091
:1014500084F83D002068C16821F40051C160204635
:1014600000F0A4FB2068016921F49041016120682B
:10147000416921F02A0141612068C16841F40051AD
:10148000C1602564202084F83D0084F83E000020DF
:1014900070BD000030B585B0002400940194029422
:1014A000039400681449884223D11448816941F4A7
:1014B00080418161816901F480410491816941F039
:1014C0000401816180690E4D00F0040004904FF426
:1014D0000070009002200190039069462846FEF7B4
:1014E000ABFE2815CDE90004694628460294FEF7B4
:1014F000A3FE05B030BD00000038014000100240DE
:1015000000080140FEE7000010B51D4BA0B01CAC68
:101510000FCB84E80F0000211CA800F0EEFB194C53
:1015200017491C22206110316846FEF747FE002152
:10153000684600F0F5FB124920601C222C3107A8F8
:10154000FEF73CFE002107A800F0EAFB0C496060B2
:101550001C2248310EA8FEF731FE00210EA800F033
:10156000DFFB0749A0601C22643115A8FEF726FEA8
:10157000002115A800F0D4FBE06020B010BD0000F1
:1015800004290008000000202DE9F04186B0002465
:1015900028480094019402940394816941F0100159
:1015A0008161816901F010010491816941F020019C
:1015B0008161816901F020010491816941F0040198
:1015C0008161816901F004010491816941F00801A0
:1015D00081618069184F00F008004FF400450490C5
:1015E000002229463846FEF717FFDFF85080EE113B
:1015F000002231464046FEF70FFF0620CDE90004E9
:101600000124694640460294FEF716FECDE90054D7
:10161000032569463846CDE90245FEF70DFECDE9C2
:10162000006469464046CDE90245FEF705FE06B076
:10163000BDE8F08100100240000C014000080140AC
:101640001CB5002419480194174900940160611EDB
:1016500041604FF480718160FFF71EFB08B1FEF717
:10166000E9FD8DF804408DF805408DF80640012213
:1016700001A90E48FFF7DCFB08B1FEF7DBFD8DF892
:10168000004006208DF8010027208DF802008DF81B
:101690000340012269460548FFF768FB002801D096
:1016A000FEF7C8FD1CBD000000280040D802002045
:1016B000114810B50F4901604FF4827141604FF439
:1016C0000041816000210222C0E903125204C0E9F6
:1016D00005121022C0E90721416281620A21C1621C
:1016E000FFF719FC002803D0BDE81040FEF7A2BDAB
:1016F00010BD000000300140EC02002010B58CB09D
:101700000024059406940794142168460894FEF773
:101710006EFD1948099417490A94C0E900144FF660
:10172000FF71C0E90241046144618461FFF7B0FCCC
:1017300008B1FEF77FFD4FF48050059005A90E48D3
:10174000FFF71EFD08B1FEF775FD009469460A48D3
:101750000194FFF741FE08B1FEF76CFD099409A959
:1017600005480A94FFF760FC002801D0FEF762FDEF
:101770000CB010BD002C01404403002010B58CB00B
:101780000024059406940794142168460894FEF7F3
:101790002EFD184809944FF080410A94C0E90014C6
:1017A0004FF6FF71C0E9024104618461FFF770FCEC
:1017B00008B1FEF73FFD4FF48050059005A90D4894
:1017C000FFF7DEFC08B1FEF735FD009469460948D5
:1017D0000194FFF701FE08B1FEF72CFD099409A959
:1017E00004480A94FFF720FC002801D0FEF722FDF0
:1017F0000CB010BD8C0300200C4810B50A490160E4
:101800004FF4E1314160002181600C22C160C0E9E8
:1018100004128161C161FFF70BFE002803D0BDE80F
:101820001040FEF707BD10BD00380140D403002072
:10183000FEE7FEE7010901EB810100F00F0000EB7C
:101840004100C0B27047012000F04BFAFBE770B5D1
:101850000446FEF7E7FD05464FF47A7606E0FEF70C
:10186000E1FD401BB04201D9032070BD20684068F3
:101870008006F4D52068416841F0100141600020E5
:1018800070BD000070B504460068416821F0100189
:101890004160FEF7C7FD05464FF47A7607E000BFCA
:1018A000FEF7C0FD401BB04201D9032070BD206887
:1018B00040688006F4D5002070BD0168086A496A56
:1018C00089B241EA00407047006881698AB2C16903
:1018D0008BB2816989B28A4203D0C06961F31F402B
:1018E000704743EA02407047F0B56424C1EBC1037E
:1018F0000927A500072603EB01130329B3FBF7F122
:1019000000F5FA60114401440AD2401EB0FBF4F223
:1019100001EB9001B0FBF5F0891A0844001D08E0C6
:10192000B0FBF4F201EB9001B0FBF5F0891A08442A
:10193000801CB0FBF6F106FB1100C0B2F0BD70B523
:101940000D4606460024FFF782FF48B93168280C8F
:1019500008623168A8B248623046FFF793FF00B1D1
:101960000124204670BD70B50D4606460024FFF7E1
:101970006EFF48B93168280C88613168A8B2C86127
:101980003046FFF77FFF00B10124204670BD0120E3
:1019900000F0A7F9FBE7000010B5502080F3118894
:1019A000BFF34F8FBFF36F8F00F0ACFE18B1044947
:1019B0004FF080500860002080F3118810BD0000B7
:1019C00004ED00E070B594B028216846FEF70FFCE6
:1019D00014210AA8FEF70BFC002401250F940A200D
:1019E00000901020CDE9045012944FF46010109430
:1019F00011940226CDE90840CDE906566846FEF767
:101A0000BBFF08B172B6FEE70F20CDE90A064FF41E
:101A10008060CDE90C4002210AA80E94FEF7A0FEDA
:101A200008B172B6FEE74FF40070CDE90F500FA871
:101A3000FEF720FE002801D072B6FEE714B070BD9C
:101A4000704700000148FFF707BC000018040020A1
:101A5000F0B50268164B174C174D4FF0804798426F
:101A600005D0B84203D0A04201D0A84203D122F051
:101A700070064A683243984205D0B84203D0A0426B
:101A800001D0A84203D122F44074CA6822434C69B1
:101A900022F08002224302608A68C2620A6882627F
:101AA000984201D10969016301214161F0BD000043
:101AB000002C0140000400400008004010B584687C
:101AC00042EA032224F47F440A432243826010BD89
:101AD000826822F070020A4342F007018160704779
:101AE00010B503689A6822F070044A68224322F015
:101AF00007040A6822439A604A6812F00F0F30D137
:101B00001211082A2DD2DFE802F02C2C2C2C0B21EC
:101B100027040B69D1E902210068FFF7CFFF20E01D
:101B20000A68052A10D00268136A146A24F00104B6
:101B3000146202689469096924F0F00444EA01110E
:101B40009161006803620CE0012010BD0A69896898
:101B5000006800F008F804E00A698968006800F08D
:101B600013F8002010BD10B5036A046A24F00104C4
:101B70000462846924F0F00444EA021423F00A02A7
:101B80000A438461026210BD10B5036A23F010039A
:101B900003628369046A23F4704343EA023224F047
:101BA000A00343EA01118261016210BD70B50446D1
:101BB00000680169E26821F4405111430161216923
:101BC000A0680843616908432168CA6841F20C6350
:101BD0009A430243CA6020684169A26921F44071B6
:101BE000114341611E492068884202D1FEF77EFE02
:101BF00001E0FEF76BFE00EBC00101EB0012606834
:101C000064218000B2FBF0F3B3FBF1F36FF0180630
:101C10007343B2FBF0F5B2FBF0F605EB830532231C
:101C200003EB0515B5FBF1F5B6FBF1F605F0F00594
:101C300005EB0615B2FBF0F6B2FBF0F0B0FBF1F0ED
:101C40006FF01802504306EB800003EB0010B0FB6E
:101C5000F1F0216800F00F002844886070BD00009A
:101C600000380140FEE7012000F03BF8FBE70907E0
:101C7000090E002804DB00F1E02080F80014704712
:101C800000F00F0000F1E02080F8141D704702E022
:101C900008C8121F08C1002AFAD1704770470020F7
:101CA00001E001C1121F002AFBD17047FEF7C8FBFB
:101CB000FFF788FEFFF768FCFFF7C2FCFFF7F8FCB0
:101CC000FFF71CFDFFF75AFDFFF796FDFFF71CFC21
:101CD00000F00EF8FEE701460020842900D0C81C61
:101CE000704710B500B9012000F032FB002010BD94
:101CF00010B500F053FB002010BD38B5D0E901123B
:101D000004683AB1C3682BB100200090204600F06F
:101D100029FC38BD2046BDE83840002200F0FEBB5B
:101D20007FB50D4604464169B0F9080081B1A1694B
:101D300071B1FFF7D0FFD4E905128DE80700D4E9AF
:101D400000102B46226900F0B2FC039004B070BD75
:101D5000FFF7C1FF03A9CDE90001208A2B4682B21B
:101D6000D4E9001000F076FC012801D00020EDE756
:101D70000398EBE72DE9F041184C0F4605466669DC
:101D80002068001D00F020FA38B9206890F82C1067
:101D900001208840A1698143A161681C07D137B146
:101DA0002168BDE8F0410E48091D00F051BA2068D5
:101DB0003544B5424560216805D2A068BDE8F041D0
:101DC000091D00F02DBA6068091D00F029FA206B8A
:101DD000854200D22563BDE8F08100002400002088
:101DE0003C0500202DE9F041054600F03DFA2E4C5F
:101DF0002069401C206120682C4F10B1E06940B37D
:101E00002DE025602069012829D1002606EB8600F7
:101E100007EB800000F0F6F9761C072EF6D3234876
:101E20008C3000F0EFF92148A03000F0EBF91F48AA
:101E3000B43000F0E7F91D48C83000F0E3F91B4862
:101E4000DC3000F0DFF919488C3060601430A0609D
:101E500005E02068E96AC06A884200D82560E06A27
:101E6000401CE062E96A0120A26988401043A06139
:101E700001EB810007EB8000291D00F0E9F900F07B
:101E800013FAE06900280CD02068E96AC06A884229
:101E900007D207494FF080500860BFF34F8FBFF360
:101EA0006F8FBDE8F0810000240000206004002056
:101EB00004ED00E010B5044690F8510058B1012837
:101EC0000CD002280FD0502080F31188BFF34F8F21
:101ED000BFF36F8FFEE7206B00F0FAF92046BDE8F4
:101EE000104000F0F5B910BD10484FF440614207B2
:101EF00006D0C01D0D4920F00700411AC1F5406110
:101F00000B4A00230144C2E900030839103A21F0CA
:101F1000070111604B600B600B1AC0E9001393605E
:101F20004FF000405360D060704700005005002023
:101F300070000020144E154CA6F1C8074FF08058D1
:101F4000DFF84C9012E000BF00F08EF9F068C56831
:101F5000281D00F039F92069401E2061E068401E0C
:101F6000E06000F0A1F92846FFF7A4FFE068002830
:101F7000EAD138680128F9D9C9F80080BFF34F8F3A
:101F8000BFF36F8FF2E70000280500202400002037
:101F900004ED00E00346009829B10260C0E90F316A
:101FA000012100F013BB0060F8E72DE9F0479A46E5
:101FB000DDE9098481466FF00303206B03EB8202A5
:101FC0001044089D20F00706700707D0502080F3CA
:101FD0001188BFF34F8FBFF36F8FFEE723180A5CA2
:101FE00083F834200A5C12B1401C1028F6D3002775
:101FF00084F84370072D00D30625E562C4E9115724
:10200000201D00F00AF904F1180000F006F924611F
:10201000C5F107006462A061E76484F8507052461D
:102020004946304600F0BEF82060B8F1000F01D0FC
:10203000C8F80040BDE8F08730B5114900E011460E
:102040000A688242FBD34B685C18844203D1406823
:1020500018444860084643681C18944209D1084C4B
:10206000103C2468A24209D052681A4442600A68AF
:1020700012680260814200D0086030BD0460F9E758
:102080007000002006484168096829B14168C968A4
:10209000C9684968016370474FF0FF31FAE70000F3
:1020A0002400002008484068401C4FF0500080F396
:1020B000118804D0BFF34F8FBFF36F8FFEE7BFF3DC
:1020C0004F8FBFF36F8FFEE7780000202DE9F041BE
:1020D0000546002700F098F9314E306808B9FFF73F
:1020E00003FFF06805424BD1C5B3083568070ED031
:1020F00005F00700C0F108000544680707D050202C
:1021000080F31188BFF34F8FBFF36F8FFEE72DB3BE
:102110007068854234D82248103001460C6801E0CE
:1021200020460C466168A94202D221680029F7D1F5
:1021300031688C4224D007682168016060680837E4
:10214000411B10290FD96019420708D0502080F395
:102150001188BFF34F8FBFF36F8FFEE710E0416030
:102160006560FFF769FF61687068401A7060B26867
:10217000904200D2B060F06801430020C4E9000141
:1021800000F05EFB780707D0502080F31188BFF382
:102190004F8FBFF36F8FFEE73846BDE8F081000038
:1021A0006000002010B5031F4FF080741C601B1FDF
:1021B00021F001011960191F024B0B6014394038DE
:1021C0000A6010BDA5200008D0E9013201699A60BB
:1021D000D0E901235A604A68824201D182684A608C
:1021E000002202610868401E08600868704700000D
:1021F000034B036003F154000860802010607047B7
:102200008400002000F108014FF0FF32C0E9011204
:10221000C1600161002101607047002101617047C8
:1022200030B50B685A1C02D000F1080202E00269C6
:1022300004E02246546825689D42FAD953684B60F1
:1022400099608A60516008610168491C016030BD75
:1022500042684A6093688B60936859609160086136
:102260000168491C01607047502080F31188BFF35A
:102270004F8FBFF36F8F0A494868401C48600128A0
:102280000CD10848006810F0FF0F07D0502080F3F1
:102290001188BFF34F8FBFF36F8FFEE770470000C9
:1022A0007800002004ED00E00849486828B1401E8D
:1022B000486001D180F311887047502080F3118865
:1022C000BFF34F8FBFF36F8FFEE700007800002051
:1022D00070B5002827D0144DA0F108046168E868A3
:1022E000014207D1502080F31188BFF34F8FBFF315
:1022F0006F8FFEE722683AB1502080F31188BFF358
:102300004F8FBFF36F8FFEE78143616000F07CF871
:1023100060686968084468602046FFF78DFEBDE884
:10232000704000F08DBA70BD600000204FF0E020DA
:1023300000210161816105494FF47A720968B1FB9E
:10234000F2F1491E41610721016170472000002020
:1023500010B5020014D00F48806B38B1502080F3C4
:102360001188BFF34F8FBFF36F8FFEE700F04CF87B
:1023700000211046FFF7FEFC00F062FA002807D1AA
:1023800005494FF080500860BFF34F8FBFF36F8F48
:1023900010BD00002400002004ED00E010B586B060
:1023A0000024039405AA04A903A80494FFF720FFBE
:1023B000DDE903010094CDE9011000230EA11048CE
:1023C000059A00F074F90F490028486311D0502095
:1023D00080F31188BFF34F8FBFF36F8F4FF0FF3043
:1023E00008630120C8614C6106B0BDE8104000F0F0
:1023F00041B806B010BD000049444C450000000043
:10240000351F0008240000200248816B491C8163AD
:1024100070470000240000201448816B11B1012195
:1024200041627047002141628169B1FA81F1C1F1D5
:102430001F0101EB81020E4951F822306BB101EB13
:10244000820101F108034A6852684A609A4201D148
:1024500052684A60D16801607047502080F311884B
:10246000BFF34F8FBFF36F8FFEE700002400002003
:10247000600400201CB5264908780190FF200870F0
:1024800008788DF800009DF800009DF8002000F00D
:10249000F000904207D0502080F31188BFF34F8F97
:1024A000BFF36F8FFEE79DF800001A4B00F050005D
:1024B00018700720986005E09DF8002052008DF804
:1024C0000020401E9DF800201206F5D498600328D5
:1024D00007D0502080F31188BFF34F8FBFF36F8F69
:1024E000FEE74FF440709860019808700A48016850
:1024F00041F470010160016841F070410160FFF733
:1025000015FF00205860FDF70DFE00201CBD0000E7
:1025100000E400E07800002020ED00E0F8B5174668
:102520000E46050014D0DEB105FB06F04830FFF77B
:10253000CDFD04000AD0002084F8460004F14802D2
:102540003B46314628460094FFF724FD2046F8BD5F
:10255000502080F31188BFF34F8FBFF36F8FFEE7DA
:102560000020E3E738B5049D18B153B1CAB181B179
:1025700020E0502080F31188BFF34F8FBFF36F8F9F
:10258000FEE7502080F31188BFF34F8FBFF36F8FAA
:10259000FEE7502080F31188BFF34F8FBFF36F8F9A
:1025A000FEE739B1502080F31188BFF34F8FBFF39E
:1025B0006F8FFEE748241C46012384F846302B46E3
:1025C0000094FFF7E7FC204638BD000070B50D46CB
:1025D000040025D0FFF748FED4E90F20216802FB54
:1025E000001161600021A1632168A1600A46D4E95D
:1025F0000F01401E00FB0121E16021464FF0FF303A
:1026000001F8440F487004F110008DB1FFF7FAFD96
:1026100004F12400FFF7F6FDFFF746FE012070BD30
:10262000502080F31188BFF34F8FBFF36F8FFEE709
:1026300021690029F0D000F0C9F80028ECD0044945
:102640004FF080500860BFF34F8FBFF36F8FE3E709
:1026500004ED00E02DE9FF5F8346DDE90E87994632
:1026600016468A469000FFF731FD05001CD0542025
:10267000FFF72CFD040014D00020256384F85100DE
:10268000CDE90240CDE900874B46324651465846D7
:10269000FFF78BFC2046FFF7A5FB012004B0BDE847
:1026A000F09F2846FFF714FE4FF0FF30F6E7F0B535
:1026B00085B0DDE90B640A9DA6B1DCB15427009713
:1026C0002663022684F85160002604AFCDE9024655
:1026D000CDE90057FFF769FC2046FFF783FB04981C
:1026E00005B0F0BD502080F31188BFF34F8FBFF3CA
:1026F0006F8FFEE7502080F31188BFF34F8FBFF339
:102700006F8FFEE72DE9F0412E4C0027A06B40B102
:10271000206A401C2062606A00B101273846BDE88B
:10272000F0816669761C666113D16068006838B113
:10273000502080F31188BFF34F8FBFF36F8FFEE7F8
:102740006068A1686160A060A06A401CA062FFF799
:1027500099FC206BDFF87080864209D360680068BE
:1027600080B16068C068C568686886420DD2206321
:102770002068C06A00EB800158F821000128CAD9FE
:102780000127C8E74FF0FF30F1E7281DFFF71CFDD8
:10279000A86A18B105F11800FFF716FDE86A0121D3
:1027A000A26981401143A16100EB800108EB810027
:1027B000291DFFF74DFDE86A2168C96A8842CDD31B
:1027C0000127CBE724000020600400202DE9F04120
:1027D000C068C468ACB104F118000746FFF7F4FC08
:1027E000154DA86B0126A0B139461448FFF730FDFE
:1027F000E06A2968C96A88421CD901206E62BDE876
:10280000F081502080F31188BFF34F8FBFF36F8F9B
:10281000FEE7201DFFF7D8FCE16AAA6906FA01F07D
:102820001043A86101EB81000449B43901EB800039
:10283000211DDBE70020E2E7240000201405002032
:102840002DE9F0472C4D00242746A86B38B1FFF73F
:102850000BFDA86B401EA863A86B40B146E050205A
:1028600080F31188BFF34F8FBFF36F8FFEE72969A5
:10287000224E0120D1B3A6F1B40980463068E8B1F8
:10288000F068C46804F11800FFF79EFC201DFFF7F4
:102890009BFCE06AAA6908FA00F11143A96100EB08
:1028A000800109EB8100211DFFF7D2FCE06A296855
:1028B000C96A8842E2D3C5F82480DFE70CB1FFF78C
:1028C000E1FB2C6A44B14646FFF71CFF00B16E6283
:1028D000641EF9D100202862686A38B108490127CE
:1028E00038070860BFF34F8FBFF36F8FFFF7DCFC33
:1028F0003846BDE8F08700002400002014050020C1
:1029000004ED00E0100000000200000000000000E4
:1029100000000000A42900088F1900080000000032
:102920000000000080000000000000000000000027
:10293000A0290008671C0008020000000000000039
:102940008000000000000000000000009C2900083A
:10295000471800080200000000000000800000008E
:102960000000000000000000B02900082B02000851
:1029700002000000000000008000000000000000D5
:10298000000000000000000000000000010203043D
:102990000607080900000000010203045254430026
:1029A0005646440064656661756C745461736B00CF
:1029B000427574746F6E0000D82900080000002072
:1029C000840000008E1C00085C2A0008840000209F
:1029D000CC1400009E1C0008000000000000000055
:1029E00000000000000000000000000001000000E6
:1029F00010000000000000000024F40000000000AF
:102A000000000000000000000000000000000000C6
:102A100000000000000000000000000000000000B6
:102A200000000000000000000000000000000000A6
:102A30000000000000000000000000000000000096
:102A40000000000000000000000000000000000086
:0C2A500000000000AAAAAAAA00000000D2
:04000005080000ED02
:00000001FF
