:020000040800F2
:10000000B014002099010008C71C0008A51A0008B8
:10001000C51C00082103000865210008000000003D
:1000200000000000000000000000000001010008C6
:10003000290500080000000045010008811F000894
:10004000B3010008B3010008B3010008B3010008C0
:10005000B3010008B3010008B3010008B3010008B0
:10006000B3010008B3010008B3010008B3010008A0
:10007000B3010008B3010008B3010008B301000890
:10008000B3010008B3010008B3010008B301000880
:10009000B3010008B3010008B3010008B301000870
:1000A000B3010008B3010008B3010008B301000860
:1000B000B3010008B301000835200008B3010008AF
:1000C000B3010008B3010008B3010008B301000840
:1000D000B3010008B3010008B3010008B301000830
:1000E000B3010008B3010008B3010008DFF80CD029
:1000F00000F09AF800480047DF250008B0140020FF
:10010000224B19680868B0E8F00F80F30988BFF344
:100110006F8F4FF0000080F311884EF00D0E704786
:100120000000000006480068006880F3088862B696
:1001300061B6BFF34F8FBFF36F8F00DF00BF00BF0B
:1001400008ED00E0EFF30980BFF36F8F0F4B1A68E3
:1001500020E9F00F106008B54FF0500080F31188CF
:10016000BFF34F8FBFF36F8F02F0CEFD4FF0000053
:1001700080F31188BDE8084019680868B0E8F00FFE
:1001800080F30988BFF36F8F704700BF38000020ED
:10019000EFF3058070470000064880470648004797
:1001A000FEE7FEE7FEE7FEE7FEE7FEE7FEE7FEE727
:1001B000FEE7FEE733200008ED0000080649074A85
:1001C0000868504343F23902104408604008704701
:1001D0000149086070470000980000206D4EC6413C
:1001E00040EA01039B0703D009E008C9121F08C0B9
:1001F000042AFAD203E011F8013B00F8013B521E39
:10020000F9D27047D2B201E000F8012B491EFBD2AF
:1002100070470022F6E710B513460A460446194611
:10022000FFF7F0FF204610BD064C074D06E0E068E2
:1002300040F0010394E8070098471034AC42F6D32D
:10024000FFF758FFEC3000080C31000870B5044689
:1002500000688168C943C90717D1816821F001018D
:10026000816000F0ADFC05460AE000BF00F0A8FC8C
:10027000401B022804D920688068C043C00706D00C
:1002800020688068C043C007F0D0002070BDA06A1D
:1002900040F01000A062E06A40F00100E06201203E
:1002A00070BD0000F8B5002604460096006881681D
:1002B000C943C9072DD0816841F00101816016480A
:1002C00016490068B0FBF1F000E0401E00900028E5
:1002D000FBD100F075FC054616E000BF00F070FC95
:1002E000401B022810D920688068C043C0070BD08B
:1002F000A06A40F01000A062E06A40F00100E062F5
:1003000084F824600120F8BD20688068C043C007DD
:10031000E4D10020F8BD00003400002040420F006E
:10032000FEE70000764C4FF00708DFF8D8A1764DC5
:10033000764E84F8008006274FF001094FF0000B3D
:10034000207807286FD2DFE800F004276F45987CFB
:10035000B60084F800900221304600F027FC28B94E
:100360000421304600F022FC012806D0022130464C
:1003700000F01CFC012804D00BE0654981F80090D6
:1003800007E00421304600F011FC10B9614880F804
:1003900000904FF4FA70ABE05D48017859B180F8F5
:1003A00000B00221304600F001FC10B103202070A3
:1003B000C6E70220FBE7574801780029C0D080F843
:1003C00000B00421304600F0F1FB08B10520EEE753
:1003D0000420ECE7277028780128B1D19AF80010A2
:1003E000504671B10178012915D05A4680F800B005
:1003F00049480178491CC9B201701729A0D9027077
:100400009EE745480178491CC9B20170172997D960
:1004100080F800B094E741480178491CC9B20170E6
:100420003B298DD9F4E758E027702878012802D0BD
:1004300085F8009084E785F800B0394981F800908C
:100440007EE7277028780128B2D19AF8001050462C
:1004500021B10178012907D080F800B02E48017839
:1004600049B104E001706BE72C48017809B1491EDD
:10047000F8E73B21F6E71721F4E72878012805D0B3
:10048000287880B158462870277059E79AF80010EC
:100490005046491C8AF800109AF800100129F3D937
:1004A00080F800B0F0E70220EDE71E4981F80090E7
:1004B000012002F0ABF80221304600F077FB002863
:1004C000F3D00421304600F071FB0028EDD0154830
:1004D00080F800B084F8008032E70221304600F056
:1004E00065FB40B10421304600F060FB18B10120EB
:1004F00002F08CF824E784F800B00520F8E700004B
:100500001000002009000020060000200008014023
:100510000B0000200C0000200D0000200E00002029
:10052000070000200A000020704772B6FEE70000B6
:10053000F8B50024009490F824202546012A12D012
:10054000012280F824204A681F23072A0DD206685A
:10055000776B521E02EB820293409F430B689340DD
:100560001F43776319E00220F8BD06680D2A0AD2FE
:10057000376BD21F02EB820293409F430B6893407C
:100580001F43376309E0F76A0D3A02EB820293409A
:100590009F430B6893401F43F7620A68072306686E
:1005A0000A2A0AD3F7680A3A02EB420293409F43B1
:1005B0008B6893401F43F76008E0376902EB420203
:1005C00093409F438B6893401F4337610A68102A0A
:1005D00001D0112A20D1124B02689A4217D1936898
:1005E0001B0219D4936843F400039360096810292F
:1005F00012D10C490C4A0968B1FBF2F101EB8101FF
:10060000490000E0491E00910029FBD104E0816A05
:1006100041F020018162012480F824502046F8BD79
:10062000002401403400002040420F00806A7047DF
:100630000068C06C704700002DE9F0414FF00007E2
:1006400004003D467ED0A06A002628B9E66284F800
:100650002460204600F07EF82046FFF7F7FDA16AEF
:10066000C90600D420B1A06A40F01000A06269E081
:10067000A16A21F4885141F00201A1626268E16936
:10068000237B0A4347EA43010A43A1684FF480777A
:10069000B94209D0012907D05FF0000194F814C0D5
:1006A000BCF1010F02D00AE03946F7E7F3B1A36AC3
:1006B00043F02003A362E36A43F00103E36223688B
:1006C000D3F804C02CF4694C4CEA010CC3F804C004
:1006D00021688B68DFF870C003EA0C0313438B605A
:1006E000A168B9420BD0012909D00CE0DFF85CC049
:1006F000A3690CEB43330B4343F40061DFE7218A2A
:100700000D05A5F580152168CB6A23F470032B43F2
:10071000CB62216889680E4B1940914208D1E6628C
:10072000A16A21F0020141F00101A162BDE8F0815E
:10073000A06A20F0020040F01000A062E06A40F0E1
:100740000100E0620120F1E7FDF7E1FF00E0FFFFBB
:10075000FE0E1FFF00B585B00021009101910291AE
:10076000039100680E49884218D10E48816941F40E
:1007700000718161816901F400710491816941F026
:10078000040181618069694600F004000490012041
:10079000009003200190044800F018F905B000BD56
:1007A0000024014000100240000801402DE9F843F8
:1007B00000270D460446009700F002FA80462068A4
:1007C0008168C90508D5A06A40F02000A06284F8BD
:1007D00024700120BDE8F8834168C90503D4C06ACC
:1007E00010F4700F2AD0022000F0AEFA3B490968DD
:1007F000B1FBF0F62068036939490B424FEA610109
:100800004FEAA1121FD1C3684FEA611C13EA0C0F13
:1008100019D103690B4225D1C068104222D114209E
:1008200023E0681C0AD02DB100F0CAF9A0EB080043
:10083000A84203D920680068800725D52068006891
:100840008007EED52DE003690B4202D1C168114249
:1008500006D0026923490A4206D1C068084203D182
:10086000542002E0292000E0FC204643009816E0D6
:10087000681C11D02DB100F0A3F9A0EB0800A8422C
:100880000AD90098B04207D2A06A40F00400A062E2
:1008900084F8247003209DE70098401C0090B0422B
:1008A000E6D321686FF012000860A06A40F400707F
:1008B000A06220688068C0F3424007280CD1207BEA
:1008C00050B9A06A20F48070A062A06AC00403D46A
:1008D000A06A40F00100A06200207BE73400002005
:1008E000244992244992240070B5044690F82400CB
:1008F00001280DD0012084F824002046FFF7D2FC07
:1009000002004FF0000005D084F82400104670BDAE
:10091000022070BDA16A40F20123994341F4807125
:10092000A1621F4D23681F49AB4218D10E6816F40F
:10093000702F14D0A66A46F48016A6620E6876055B
:1009400005D5A66A26F4005646F48056A662A66A25
:10095000F6040AD5E66A26F00606E66206E0A66A0E
:1009600026F48016A6625E68E9E7E06284F8240057
:100970006FF00200186020688368C3F34243072BBE
:1009800005D1A84208D1096811F4702F04D08168FC
:1009900041F480118160B9E7816841F4A001F9E771
:1009A000002801400424014070B5044600F008F915
:1009B0000546601C02D004480078044400F000F9A9
:1009C000401BA042FAD370BD280000202DE9F84F4B
:1009D000DFF8B891002409F1040A0AF1040B234658
:1009E0000F270BF1040EC9E00125A5402A40AA42B9
:1009F0007DD1674ED1F804C0ACEB0608B44532D0C7
:100A000014DCBCF1030F3AD009DCBCF1000F2AD092
:100A1000BCF1010F1CD0BCF1020F31D11DE0BCF1C3
:100A2000110F17D0BCF1120F2AD119E0B8F5881FA9
:100A300019D006DCB8F5803F15D0B8F5801F1FD15E
:100A400011E0B8F5001F0ED0B8F5041F18D10AE068
:100A5000CB6815E0CB681B1D12E0CB6808330FE0B4
:100A6000CB680C330CE08B682BB1012B4FF00803E3
:100A700003D0456104E0042302E0056100E00023A7
:100A8000FF2A01D8064601E000F104064FEA84057A
:100A900001D9A5F12005D6F8008007FA05FC28EA5F
:100AA0000C0803FA05F548EA0508C6F800804D6809
:100AB000ED0062D5374DAE6946F00106AE61AD6915
:100AC00024F0030605F001050095334D06EB050CF7
:100AD000DCF80850A607360F07FA06F825EA0805DD
:100AE000DFF8B880404503D14FF0000817E044E03C
:100AF000DFF8AC80404502D14FF001080FE0DFF88D
:100B0000A480404502D14FF0020808E0DFF8988049
:100B1000404502D14FF0030801E04FF0040808FA05
:100B200006F848EA0508CCF808804D68D9F8006056
:100B3000ED034D4601D5164300E096432E604D6807
:100B4000DAF80060AD03554601D5164300E0964340
:100B50002E604D68DBF80060ED025D4601D516435E
:100B600000E096432E604D68DEF80060AD027546E9
:100B700001D5164300E096432E60641C0D682A469A
:100B8000E5407FF431AFBDE8F88F0000000401407C
:100B90000000111000100240000001400008014058
:100BA000000C014000100140001401408068084022
:100BB00000D0012070470AB1016170470904FBE7CA
:100BC00001488068704700002800002002488168C2
:100BD000027811448160704728000020074810B552
:100BE000016841F010010160032000F095F8002039
:100BF00000F006F800F03EF8002010BD0020024092
:100C000000B5014687B000221E2000F065F81E20C6
:100C100000F054F81348C16941F00401C161C06992
:100C200005A900F004000690684600F0FDF900F008
:100C300021FA0D494000B0FBF1F10D480B4A491E65
:100C40000260416040F2E7320021C0E90321816087
:100C500000F0A3FD10B1012007B000BD044800F072
:100C6000CBFDF9E70010024040420F0000080040B1
:100C7000780300200F4808B5816941F001018161C6
:100C8000816901F001010091C16941F08051C161A8
:100C9000C069002200F0805000900F21901E00F0EB
:100CA0001BF80548416821F0E06141F000714160A6
:100CB00008BD00000010024000000140002809DBD0
:100CC00000F01F02012191404009800000F1E02066
:100CD000C0F8001170470000F0B40E4B1B680C46C2
:100CE000C3F30223C3F10705042D00D90425191D00
:100CF000072901D2002300E0DB1E012606FA05F1D8
:100D0000491E214099409E40761E16403143F0BC5A
:100D100001F046BC0CED00E0064900F0070208684F
:100D20004FF6FF03184040EA0220034A10430860D0
:100D3000704700000CED00E00000FA0501490120B9
:100D40000862704700000E4210B529A401461DCC70
:100D500086B08DE81D002AA02A4C0068049000206F
:100D6000012923D002293AD010291DD161682268B7
:100D7000D20119D5C1F38342C9031DF8020009D578
:100D8000616804AAC1F34041515C1F4AB2FBF1F112
:100D9000484301E01D4948436168490204D44000CA
:100DA0005FF00301B0FBF1F006B010BD226AC2F3A0
:100DB0000121012903D1920701D5C803F4E70229D3
:100DC00005D1626A920702D549F64040ECE7032953
:100DD000EAD121688903E7D54FF22440E4E700F027
:100DE00059F96168C1F38131491C4900DAE7000013
:100DF00002030405060708090A0B0C0D0E0F10105C
:100E0000010200000010024000127A0000093D00BB
:100E10002DE9F84305460078354CC00754D0E06909
:100E20000026C00008D4E06940F08050E061E0692D
:100E3000012600F0805000902E480168C90512D4A8
:100E40000168804641F480710160FFF7B9FE0746F2
:100E500005E000BFFFF7B4FEC01B642823D8D8F814
:100E60000000C005F6D5206A10F4407021D0A98892
:100E700001F4407181421CD0206A1F49012220F4F4
:100E800040700A6000220A602062C00711D0FFF79C
:100E900097FE074641F2883808E000BFFFF790FE52
:100EA000C11B414502D90320BDE8F883206A8007B1
:100EB000F4D5206A696820F44070084320621EB1AE
:100EC000E06920F08050E0612878800705D56068EF
:100ED000A96820F44040084360602878C00605D522
:100EE0006068E96820F48000084360600020DBE768
:100EF0000010024000700040400442422DE9F047DB
:100F00000F46050061D0434E306800F00700B8423C
:100F100009D2306820F0070038433060306800F0B4
:100F20000700B84251D128683B4C810712D54007D1
:100F300003D5606840F4E06060602878000703D55E
:100F4000606840F4605060606068A96820F0F0005C
:100F5000084360602878C00728D06868012810D04E
:100F60002168022810D0890700292EDA616821F053
:100F7000030101436160FFF723FE804641F2883997
:100F80000DE021688903EFE78901EDE7FFF718FE1F
:100F9000A0EB0801494502D90320BDE8F08760684D
:100FA000696800F00C00B0EB810FEFD1306800F001
:100FB0000700B8420BD9306820F007003843306092
:100FC000306800F00700B84201D00120E5E728783A
:100FD000400705D56068E96820F4E0600843606078
:100FE0002878000706D56068296920F4605040EA37
:100FF000C100606000F05EF86168084AC1F3031147
:10100000515CC8400649086006480068FFF7F8FDD3
:101010000020C2E70020024000100240B830000863
:10102000340000202C0000200F2202600C4A53687C
:1010300003F003034360536803F0F00383605368D5
:1010400003F4E063C36052684FF4E06303EAD20242
:1010500002610448006800F0070008607047000063
:101060000010024000200240014800687047000064
:10107000340000200448054900684968044AC1F367
:101080000221515CC840704734000020001002402B
:10109000C83000080448054900684968044AC1F39B
:1010A000C221515CC840704734000020001002404B
:1010B000C830000812A185B00FC98DE80F0014A038
:1010C000144A006804905168134801F00C03042B83
:1010D00010D0082B0ED1C1F38343C9031DF80300C0
:1010E0000AD5516804AAC1F34041515C0A4A5043F1
:1010F000B0FBF1F005B0704708494843FAE700003B
:1011000002030405060708090A0B0C0D0E0F101048
:10111000010200000010024000127A0000093D00A8
:101120002DE9F84F040070D02078C04DC00749D099
:101130006868C0F38100012807D06868C0F38100A7
:10114000022809D16868C00306D52868800339D50C
:1011500060680028E7D035E06068B0F5803F0BD0CC
:1011600010B1B0F5A02F11D0286820F4803028608D
:10117000286820F4802002E0286840F4803028604D
:10118000606890B1FFF71CFD06460AE0286840F44D
:1011900080202860F0E700BFFFF712FD801B642865
:1011A00073D828688003F7D50CE0FFF709FD0646E1
:1011B00005E000BFFFF704FD801B6428F0D8286815
:1011C0008003F7D420789A4E80074FF001094FF042
:1011D000000839D5686810F00C0F07D06868C0F3B4
:1011E0008100022809D16868C00306D428688007F6
:1011F00014D52069012808D110E02069B0B1C6F8E3
:101200000090FFF7DDFC074605E00AE1FFF7D8FC98
:10121000C01B0228C4D828688007F7D528686169F0
:1012200020F0F80040EAC10028600DE0C6F8008018
:10123000FFF7C6FC074604E0FFF7C2FCC01B02280C
:1012400023D828688007F7D4207800072CD5794860
:10125000A169D9B1C0F80090FFF7B2FC074604E0DD
:10126000FFF7AEFCC01B02280FD8686A8007F7D5CD
:1012700071484FF4FA510068B0FBF1F0009000BFE4
:101280000098411E0091FAD20EE080E0C0F8008084
:10129000FFF796FC074604E0FFF792FCC01B02280C
:1012A00075D8686A8007F7D42078400760D5E86968
:1012B0000027C00008D4E86940F08050E861E86980
:1012C000012700F0805000905C480168C90513D4E4
:1012D0000168834641F480710160FFF771FC82462A
:1012E00006E000BFFFF76CFCA0EB0A0064284ED8B4
:1012F000DBF80000C005F5D5E06801280AD008B188
:10130000052813D0286A20F001002862286A20F0FE
:10131000040002E0286A40F001002862E06841F21F
:10132000883B98B1FFF74CFC82460BE0286A40F0FE
:1013300004002862EEE700BFFFF742FCA0EB0A01C1
:1013400059455AD8286A8007F6D50CE0FFF738FCD3
:10135000824605E0FFF734FCA0EB0A0159454CD862
:10136000286A8007F6D41FB1E86920F08050E86150
:10137000E06988B36968C1F38101022944D0022879
:10138000C6F8608004D0FFF71BFC044638E034E068
:10139000FFF716FC074604E0FFF712FCC01B02280B
:1013A0002BD828688001F7D4206AB0F5803F05D19A
:1013B0006868A16820F4003008436860D4E9080137
:1013C0000843696821F4741108436860C6F86090A6
:1013D000FFF7F6FB044606E025E000BFFFF7F0FB51
:1013E000001B022809D828688001F7D51BE000BF40
:1013F000FFF7E6FB001B022802D90320BDE8F88FA7
:1014000028688001F4D40EE00128F7D06868226AC9
:1014100000F48031914204D1616A00F47010884276
:1014200001D00120EAE70020E8E7000000100240B8
:10143000000042428004424234000020007000401C
:101440002DE9F04791460C465FEA00084AD084B384
:10145000D8F800004068400744D4404600F028FD1A
:101460004FF461620546B0FBF2F1B0FBF2F302FB10
:1014700013503C23B0FBF3F0B5FBF2F6607002FBB7
:101480001650B0FBF3F203FB1200A070182931D301
:101490001820B1FBF0F7B1FBF0F200FB1210207046
:1014A000404600F0FEFC411C04D0A84202D9461B75
:1014B00002E017E04FF0FF36A7EB071000EB40000B
:1014C000C0EB001005EBC0152946404600F03FFD7B
:1014D00040B9701C01D0711900E03146404600F05F
:1014E00022FD10B10120BDE8F0873946404600F0EA
:1014F0004BFC00E02170B9F1000F0BD0207800F018
:10150000ECFB2070607800F0E8FB6070A07800F0E1
:10151000E4FBA0700020E6E770B5040003D0607C17
:10152000002610B105E0012070BD2674204600F0B1
:1015300043F802206074204600F010F9042578BBBF
:10154000204600F078FC58BB2068416821F0070174
:101550004160A06820B11748016821F001010160D5
:101560001448001F0168A26821F4607111430160F2
:101570006068411C04D10120FFF7E6FB80B1401EEA
:1015800021688A6822F00F0242EA10428A602168CC
:10159000CA6860F30F02CA60204600F067FC08B119
:1015A0006574C0E7E67301206073A0736074002067
:1015B00070BD0000306C004008B5006808498842E2
:1015C0000DD1FFF7BBFB0748C16941F00061C16164
:1015D000C069054900F0006000900120086008BD66
:1015E00000280040001002403C0442422DE9F04136
:1015F0000D4604003BD0C5B3207C01283AD04FF003
:10160000010884F8108002206074E87872B300F05A
:101610005BFBE073687800F057FB6073A87800F01C
:1016200053FBA073C2B2617BE07B00F051FC2073DE
:101630002870204600F03CFC4FF46161B0FBF1F1F2
:10164000002518292DD91822B1FBF2F1A1EB0111C7
:1016500001EB4101C1EB011100EBC11631462046FF
:1016600000F075FC0427C8B90BE000E004E001209D
:10167000BDE8F0810220FBE7E07368786073A8782A
:10168000CFE7204600F00DFC411C0AD0B04208D242
:1016900006490144204600F046FC10B167742574E9
:1016A000E5E784F8118025740020E1E7805101000E
:1016B0002DE9F0410D46040024D01DB3207C012803
:1016C00023D04FF0010884F810800220607428783D
:1016D000EAB100F0F9FA4FF4616100FB01F66878B5
:1016E00000F0F2FAC0EB001006EB8006A87800F0DC
:1016F000EBFA35182946204600F029FC002604277D
:1017000010BB0FE00120BDE8F0810220FBE74FF4A1
:10171000616148436978C1EB011100EB8100A97850
:101720004518E7E72068416821F00501416020463F
:1017300000F0B7FB411C0AD0A84208D20649014478
:10174000204600F0F0FB10B167742674DAE784F8E5
:10175000118026740020D6E78051010070B5040086
:101760000AD02068416821F008014160FFF728FA9B
:1017700005464FF47A7608E0012070BDFFF720FAA5
:10178000401BB04201D9032070BD206840680007AB
:10179000F4D5002070BD7047704710B5040003D029
:1017A00094F83D0010B107E0012010BD002084F83E
:1017B0003C00204600F01EF8022084F83D00211D68
:1017C000206800F03DFC012084F8460084F83E00CB
:1017D00084F83F0084F8400084F8410084F8420017
:1017E00084F8430084F8440084F8450084F83D0000
:1017F000002010BD7047000090F83D10012901D075
:1018000001207047022180F83D100168CA6842F04B
:101810000102CA6000680B49884208D0B0F1804FCD
:1018200005D00949884202D00849884204D181681C
:1018300001F00701062903D0016841F001010160B0
:1018400000207047002C01400004004000080040C8
:10185000704770B50446006801694FF00005C94340
:10186000890715D4C168C943890711D4E91E0161EC
:1018700001202077206880698007204602D0FFF78A
:10188000E7FF04E000F098F8204600F096F825778E
:1018900020680169C943490717D4C168C94349078A
:1018A00013D46FF004010161022020772068806961
:1018B00010F4407F204602D0FFF7CAFF04E000F09A
:1018C0007BF8204600F079F8257720680169C94344
:1018D000090716D4C168C943090712D46FF008017B
:1018E0000161042020772068C0698007204602D06B
:1018F000FFF7AEFF04E000F05FF8204600F05DF86F
:10190000257720680169C943C90617D4C168C9434E
:10191000C90613D46FF010010161082020772068F8
:10192000C06910F4407F204602D0FFF791FF04E029
:1019300000F042F8204600F040F825772068016961
:10194000C943C90708D1C168C943C90704D1891E61
:101950000161204600F032F820680169C943090698
:1019600009D4C168C943090605D46FF0800101613B
:101970002046FFF710FF20680169C943490609D4D2
:10198000C168C943490605D46FF040010161204692
:1019900000F01EF820680169C94389060BD4C168AC
:1019A000C943890607D46FF0200101612046BDE8D4
:1019B0007040FFF7F1BE70BD704770470068034983
:1019C000884201D1FFF702B97047000000080040CB
:1019D000704770B5040004D094F83D00002510B1A4
:1019E00006E0012070BD84F83C50204600F022F84B
:1019F000242084F83D002068C16821F40051C160B2
:101A0000204600F053FB2068016921F490410161F8
:101A10002068416921F02A0141612068C16841F4D0
:101A20000051C1602564202084F83D0084F83E0008
:101A3000002070BD30B585B000240094019402945C
:101A4000039400681449884223D11448816941F401
:101A500080418161816901F480410491816941F093
:101A60000401816180690E4D00F0040004904FF480
:101A70000070009002200190039069462846FEF70E
:101A8000A5FF2815CDE90004694628460294FEF713
:101A90009DFF05B030BD000000380140001002403D
:101AA00000080140FEE700003EB500241148009404
:101AB000019402940E498460016004730475012549
:101AC00005614FF460214460C161FEF7B5FD08B1C6
:101AD000FEF72BFDCDE90045694606480294FEF766
:101AE00027FD08B1FEF721FD0248FEF7FDFE3EBDD1
:101AF00000240140F002002010B59CB01C221649C1
:101B00006846FEF76DFB0021684600F08BFD134C24
:101B100011491C22A0601C3107A8FEF761FB0021BF
:101B200007A800F07FFD0C49E0601C2238310EA8A8
:101B3000FEF756FB00210EA800F074FD0649206157
:101B40001C22543115A8FEF74BFB002115A800F00C
:101B500069FD60611CB010BD483000081000002015
:101B60002DE9F04186B000242948009401940294A4
:101B70000394816941F010018161816901F01001D4
:101B80000491816941F020018161816901F02001A6
:101B90000491816941F004018161816901F00401CE
:101BA0000491816941F0080181618069194F00F059
:101BB00008004FF4D8750490002229463846FEF7F5
:101BC000FAFFDFF854804FF40046002231464046C9
:101BD000FEF7F1FF0620CDE90004012469463846EE
:101BE0000294FEF7F3FECDE900540325694638461A
:101BF000CDE90245FEF7EAFECDE9006469464046BC
:101C0000CDE90245FEF7E2FE06B0BDE8F081000036
:101C10000010024000080140000C01401CB50024E7
:101C200019480194174900940160611E41604FF406
:101C300080718160FFF770FC08B1FEF776FC8DF8CB
:101C400004408DF805408DF80640002201A90E4899
:101C5000FFF72EFD08B1FEF768FC8DF80040062066
:101C60008DF801001B208DF802008DF80340002242
:101C700069460548FFF7BAFC002801D0FEF755FC7D
:101C80001CBD000000280040200300200C4810B5B7
:101C90000A4901604FF4E1314160002181600C226A
:101CA000C160C0E904128161C161FFF792FE0028A2
:101CB00003D0BDE81040FEF738BC10BD003801402D
:101CC00034030020FEE7FEE7010901EB810100F08B
:101CD0000F0000EB4100C0B27047002102E00A385B
:101CE000C0B2491C0A28FAD2090740EA11607047BD
:101CF00008B51E4F1E4D1F4CDFF87C904FF00108B9
:101D00000026387818B1387801280FD001E02878FB
:101D100018B1012000F07AFCF3E716490022C91E31
:101D20001648FFF78DFB85F80080EAE7287840B970
:101D3000134800782070134800786070A67085F80A
:101D4000008099F800000128DBD120788DF8000090
:101D500060788DF801008DF802600022694607481E
:101D6000FFF7A6FC89F80060CBE700000600002022
:101D7000080000201400002007000020200300209D
:101D80000D0000200E0000202DE9F0410446002542
:101D9000C07B627BA37B42E0012A16D0032A14D0C9
:101DA000052A12D0072A10D0082A0ED00A2A0CD0F1
:101DB0000C2A0AD0042A10D0062A0ED0092A0CD0E8
:101DC0000B2A0AD0022A0DD028E01F2B0CD30C2A94
:101DD00005D101221346401C20E01E2B04D3012311
:101DE000521C1BE01C2B02D203F1010316E011D19F
:101DF00083B29E0710D16426B3FBF6F706FB1736B5
:101E000036B94FF4C876B3FBF6F706FB17331BB9A8
:101E10001D2303E01D2B01D1032201236D1C8D42E4
:101E2000BAD3D1B2E0736173DAB2A27300F050F8A2
:101E30002073BDE8F08170B50446FEF7C1FE05468B
:101E40004FF47A7606E0FEF7BBFE401BB04201D9A4
:101E5000032070BD206840688006F4D52068416882
:101E600041F010014160002070BD000070B50446D3
:101E70000068416821F010014160FEF7A1FE0546AF
:101E80004FF47A7607E000BFFEF79AFE401BB0429F
:101E900001D9032070BD206840688006F4D5002079
:101EA00070BD0168086A496A89B241EA004070471A
:101EB000006881698AB2C1698BB2816989B28A423C
:101EC00003D0C06961F31F40704743EA0240704786
:101ED000F0B56424C1EBC1030927A500072603EB75
:101EE00001130329B3FBF7F100F5FA601144014433
:101EF0000AD2401EB0FBF4F201EB9001B0FBF5F00A
:101F0000891A0844001D08E0B0FBF4F201EB9001CF
:101F1000B0FBF5F0891A0844801CB0FBF6F106FB13
:101F20001100C0B2F0BD70B50D4606460024FFF7A3
:101F300082FF48B93168280C08623168A8B248624B
:101F40003046FFF793FF00B10124204670BD70B505
:101F50000D4606460024FFF76EFF48B93168280C8D
:101F600088613168A8B2C8613046FFF77FFF00B1D1
:101F70000124204670BD012000F048FBFBE7000073
:101F800010B5502080F31188BFF34F8FBFF36F8FD0
:101F900000F094FF18B104494FF080500860002011
:101FA00080F3118810BD000004ED00E030B593B05F
:101FB00028216846FEF72DF914210AA8FEF729F911
:101FC00000240F9409200121109400901194129480
:101FD0004FF4803004910691CDE901040225CDE94A
:101FE00007504FF4E01009906846FFF799F808B1E0
:101FF00072B6FEE70F20CDE90A054FF48060CDE907
:102000000C4002210AA80E94FEF778FF08B172B6C0
:10201000FEE703200F904FF40070109080011190A4
:102020000FA8FEF7F5FE002801D072B6FEE713B048
:1020300030BD70470148FFF70CBC0000780300205A
:10204000F0B50268164B174C174D4FF08047984279
:1020500005D0B84203D0A04201D0A84203D122F05B
:1020600070064A683243984205D0B84203D0A04275
:1020700001D0A84203D122F44074CA6822434C69BB
:1020800022F08002224302608A68C2620A68826289
:10209000984201D10969016301214161F0BD00004D
:1020A000002C0140000400400008004070B50446C8
:1020B00000680169E26821F440511143016121691E
:1020C000A0680843616908432168CA6841F20C634B
:1020D0009A430243CA6020684169A26921F44071B1
:1020E000114341611E492068884202D1FEF7D2FFA8
:1020F00001E0FEF7BFFF00EBC00101EB00126068DA
:1021000064218000B2FBF0F3B3FBF1F36FF018062B
:102110007343B2FBF0F5B2FBF0F605EB8305322317
:1021200003EB0515B5FBF1F5B6FBF1F605F0F0058F
:1021300005EB0615B2FBF0F6B2FBF0F0B0FBF1F0E8
:102140006FF01802504306EB800003EB0010B0FB69
:10215000F1F0216800F00F002844886070BD000095
:1021600000380140FEE7000010B5164C0022102197
:102170002046FEF720FDE42000F080F8012000F06A
:1021800051F9642000F07AF8012210212046FEF770
:1021900012FD012000F03AFA002210212046FEF73D
:1021A0000AFDE42000F06AF8012000F03BF9FE206F
:1021B00000F064F820460122BDE810401021FEF72F
:1021C000FABC00000008014070B52A4D4FF480743D
:1021D000002221462846FEF7EEFC0122D1032648C4
:1021E000FEF7E9FC0220FEF7DFFB0122214628462C
:1021F000FEF7E1FC00F024F97E21002000F0AEF9AA
:102200002821012000F0AAF92A21022000F0A6F9D5
:102210004021032000F0A2F95E21042000F09EF985
:102220004021052000F09AF92A21062000F096F9B5
:102230003E21072000F092F90124002210212846B7
:10224000FEF7B9FCE42000F019F8012000F0EAF8EC
:10225000E0B200F013F8012210212846FEF7ABFC93
:10226000012000F0DFF8012000F0D0F9641CFF2C01
:10227000E3DB70BD00080140000C014070B5114E59
:1022800005460024002220213046FEF794FCE80792
:1022900001D0012200E0002280213046FEF78BFCB5
:1022A0006D08012000F0BEF8012220213046FEF723
:1022B00082FC012000F0B6F8641CE4B2082CE1D3E3
:1022C00070BD000000080140FFF77EFF00F000F93C
:1022D000DFF83C81DFF83C914F4E0A254FF0000AB1
:1022E00098F80000012804D1FFF73EFF012000F01C
:1022F0008DF9307858B1307801280FD03078022825
:1023000055D086F800A0012000F080F9E8E799F8A0
:1023100000004F46012806D1404C0AE099F8000021
:102320004F46012803D0012000F070F9EBE73B4C49
:10233000E41C2078B0FBF5F03030C1B2002000F092
:102340000DF92078B0FBF5F105FB110101203031CA
:1023500000F004F93A21022000F000F96078B0FBA7
:10236000F5F03030C1B2032000F0F8F86078B0FB2F
:10237000F5F105FB11010420303100F0EFF83A21AE
:10238000052000F0EBF8A078B0FBF5F03030C1B2DA
:10239000062000F0E3F8A078B0FBF5F105FB110191
:1023A0000720303100F0DAF887F800A0ABE70A2107
:1023B0001B48FEF7FBF91A48FEF738F9800503D5EC
:1023C0001748FEF735F904462046FDF701FF312195
:1023D000002000F0C3F82E21012000F0BFF80027F4
:1023E0005FF00204FDF7EAFE90FBF5F105FB11003A
:1023F0003030C1B2E0B200F0B1F8641C082CF1DB5F
:10240000642000F003F97F1C082FE9DB7BE7000064
:102410000A00002008000020060000201100002013
:10242000F002002010B50446FEF71EFE0349B0FB83
:10243000F1F16143491EFDD210BD000000093D00CD
:1024400070B5214D002210212846FEF7B4FB1F4C29
:102450006079FFF713FF0120FFF7E4FF012210214D
:102460002846FEF7A8FB6420FEF79EFA0022102102
:102470002846FEF7A0FBE078FFF700FF0120FFF7FA
:10248000D1FF6078FFF7FAFE012210212846FEF7FF
:1024900092FB0120FFF7C6FF002210212846FEF71D
:1024A0008AFB2079FFF7EAFE0120FFF7BBFFA07847
:1024B000FFF7E4FE012210212846FEF77CFBBDE871
:1024C00070400120FFF7AEBF00080140000000206F
:1024D00070B50A211348FEF769F91248FEF7A6F80D
:1024E000800503D50F48FEF7A3F804462046FDF704
:1024F0006FFE00250A260024FDF760FE90FBF6F132
:1025000006FB11003030C1B2E0B200F027F8641CC5
:10251000082CF1DB3C2000F079F86D1C082DEADB7B
:1025200070BD0000F002002010B50A4C00221021FE
:102530002046FEF740FB0120FFF774FF06480078B5
:10254000FFF79CFE20460122BDE810401021FEF757
:1025500032BB0000000801400000002070B52030B0
:102560000E4EC5B20C46002210213046FEF723FB6A
:102570000120FFF757FF2846FFF780FE0120FFF7F5
:1025800051FF2046FFF77AFE012210213046FEF768
:1025900012FBBDE87040FFF7C7BF00000008014014
:1025A0000907090E002804DB00F1E02080F8001480
:1025B000704700F00F0000F1E02080F8141D704714
:1025C00002E008C8121F08C1002AFAD170477047FC
:1025D000002001E001C1121F002AFBD17047FEF765
:1025E000FDFAFFF7E3FCFFF7BBFAFFF717FBFFF776
:1025F0004DFBFFF759FAFFF77FFA00F00EF8FEE700
:1026000001460020842900D0C81C704710B500B9CD
:10261000012000F015FB002010BD10B500F036FBC6
:10262000002010BD7FB50D4604464169B0F9080091
:1026300081B1A16971B1FFF7E3FFD4E905128DE81B
:102640000700D4E900102B46226900F00CFC03902F
:1026500004B070BDFFF7D4FF03A9CDE90001208AC3
:102660002B4682B2D4E9001000F0D0FB012801D043
:102670000020EDE70398EBE72DE9F041184C0F46F9
:10268000054666692068001D00F016FA38B9206812
:1026900090F82C1001208840A1698143A161681C39
:1026A00007D137B12168BDE8F0410E48091D00F09F
:1026B00047BA20683544B5424560216805D2A06814
:1026C000BDE8F041091D00F023BA6068091D00F063
:1026D0001FFA206B854200D22563BDE8F08100001F
:1026E000380000209C0400202DE9F041054600F050
:1026F00033FA2E4C2069401C206120682C4F10B109
:10270000E06940B32DE025602069012829D1002629
:1027100006EB860007EB800000F0ECF9761C072E34
:10272000F6D323488C3000F0E5F92148A03000F0C2
:10273000E1F91F48B43000F0DDF91D48C83000F061
:10274000D9F91B48DC3000F0D5F919488C306060AD
:102750001430A06005E02068E96AC06A884200D8A9
:102760002560E06A401CE062E96A0120A2698840B5
:102770001043A06101EB810007EB8000291D00F0F0
:10278000DFF900F009FAE06900280CD02068E96A56
:10279000C06A884207D207494FF080500860BFF3F3
:1027A0004F8FBFF36F8FBDE8F0810000380000202D
:1027B000C003002004ED00E010B5044690F851007D
:1027C00058B101280CD002280FD0502080F3118876
:1027D000BFF34F8FBFF36F8FFEE7206B00F0F0F970
:1027E0002046BDE8104000F0EBB910BD10484FF492
:1027F0004061420706D0C01D0D4920F00700411A74
:10280000C1F540610B4A00230144C2E900030839C5
:10281000103A21F0070111604B600B600B1AC0E900
:10282000001393604FF000405360D0607047000089
:10283000B004002084000020144E154CA6F1C807F7
:102840004FF08058DFF84C9012E000BF00F084F9A0
:10285000F068C568281D00F02FF92069401E20612E
:10286000E068401EE06000F097F92846FFF7A4FFFB
:10287000E0680028EAD138680128F9D9C9F8008051
:10288000BFF34F8FBFF36F8FF2E700008804002083
:102890003800002004ED00E02DE9F0479A46DDE91C
:1028A000098481466FF00303206B03EB820210441E
:1028B000089D20F00706700707D0502080F311888C
:1028C000BFF34F8FBFF36F8FFEE723180A5C83F8C7
:1028D00034200A5C12B1401C1028F6D3002784F87B
:1028E0004370072D00D30625E562C4E91157201D6A
:1028F00000F00BF904F1180000F007F92461C5F1AC
:1029000007006462A061E76484F85070524649464B
:10291000304600F0BFF82060B8F1000F01D0C8F8D1
:102920000040BDE8F087000030B5114900E01146D5
:102930000A688242FBD34B685C18844203D140682A
:1029400018444860084643681C18944209D1084C52
:10295000103C2468A24209D052681A4442600A68B6
:1029600012680260814200D0086030BD0460F9E75F
:102970008400002006484168096829B14168C96897
:10298000C9684968016370474FF0FF31FAE70000FA
:102990003800002008484068401C4FF0500080F389
:1029A000118804D0BFF34F8FBFF36F8FFEE7BFF3E3
:1029B0004F8FBFF36F8FFEE78C0000202DE9F041B1
:1029C0000546002700F098F9314E306808B9FFF746
:1029D0000DFFF06805424BD1C5B3083568070ED02E
:1029E00005F00700C0F108000544680707D0502033
:1029F00080F31188BFF34F8FBFF36F8FFEE72DB3C6
:102A00007068854234D82248103001460C6801E0D5
:102A100020460C466168A94202D221680029F7D1FC
:102A200031688C4224D007682168016060680837EB
:102A3000411B10290FD96019420708D0502080F39C
:102A40001188BFF34F8FBFF36F8FFEE710E0416037
:102A50006560FFF769FF61687068401A7060B2686E
:102A6000904200D2B060F06801430020C4E9000148
:102A700000F088FA780707D0502080F31188BFF360
:102A80004F8FBFF36F8FFEE73846BDE8F08100003F
:102A90007400002010B5031F4FF080741C601B1FD2
:102AA00021F001011960191F024B0B6014394038E5
:102AB0000A6010BD95290008D0E9013201699A60C9
:102AC000D0E901235A604A68824201D182684A6093
:102AD000002202610868401E086008687047000014
:102AE000034B036003F154000860802010607047BE
:102AF0009C00002000F108014FF0FF32C0E90112F4
:102B0000C1600161002101607047002101617047CF
:102B100030B50B685A1C02D000F1080202E00269CD
:102B200004E02246546825689D42FAD953684B60F8
:102B300099608A60516008610168491C016030BD7C
:102B400042684A6093688B6093685960916008613D
:102B50000168491C01607047502080F31188BFF361
:102B60004F8FBFF36F8F0A494868401C48600128A7
:102B70000CD10848006810F0FF0F07D0502080F3F8
:102B80001188BFF34F8FBFF36F8FFEE770470000D0
:102B90008C00002004ED00E00849486828B1401E80
:102BA000486001D180F311887047502080F311886C
:102BB000BFF34F8FBFF36F8FFEE700008C00002044
:102BC00070B5002827D0144DA0F108046168E868AA
:102BD000014207D1502080F31188BFF34F8FBFF31C
:102BE0006F8FFEE722683AB1502080F31188BFF35F
:102BF0004F8FBFF36F8FFEE78143616000F07CF879
:102C000060686968084468602046FFF78DFEBDE88B
:102C1000704000F0B7B970BD740000204FF0E020A4
:102C200000210161816105494FF47A720968B1FBA5
:102C3000F2F1491E41610721016170473400002013
:102C400010B5020014D00F48806B38B1502080F3CB
:102C50001188BFF34F8FBFF36F8FFEE700F04CF882
:102C600000211046FFF708FD00F08CF9002807D17D
:102C700005494FF080500860BFF34F8FBFF36F8F4F
:102C800010BD00003800002004ED00E010B586B053
:102C90000024039405AA04A903A80494FFF720FFC5
:102CA000DDE903010094CDE9011000230EA11048D5
:102CB000059A00F0D8F80F490028486311D0502039
:102CC00080F31188BFF34F8FBFF36F8F4FF0FF304A
:102CD00008630120C8614C6106B0BDE8104000F0F7
:102CE00041B806B010BD000049444C45000000004A
:102CF00039280008380000200248816B491C816394
:102D000070470000380000201448816B11B1012188
:102D100041627047002141628169B1FA81F1C1F1DC
:102D20001F0101EB81020E4951F822306BB101EB1A
:102D3000820101F108034A6852684A609A4201D14F
:102D400052684A60D16801607047502080F3118852
:102D5000BFF34F8FBFF36F8FFEE7000038000020F6
:102D6000C00300201CB5264908780190FF20087098
:102D700008788DF800009DF800009DF8002000F014
:102D8000F000904207D0502080F31188BFF34F8F9E
:102D9000BFF36F8FFEE79DF800001A4B00F0500064
:102DA00018700720986005E09DF8002052008DF80B
:102DB0000020401E9DF800201206F5D498600328DC
:102DC00007D0502080F31188BFF34F8FBFF36F8F70
:102DD000FEE74FF440709860019808700A48016857
:102DE00041F470010160016841F070410160FFF73A
:102DF00015FF00205860FDF795F900201CBD00006C
:102E000000E400E08C00002020ED00E02DE9FF5FF1
:102E10008346DDE90E87994616468A469000FFF7FD
:102E2000CDFD05001CD05420FFF7C8FD040014D0D0
:102E30000020256384F85100CDE90240CDE90087E8
:102E40004B46324651465846FFF726FD2046FFF7CF
:102E50004BFC012004B0BDE8F09F2846FFF7B0FE10
:102E60004FF0FF30F6E7F0B585B0DDE90B640A9D61
:102E7000A6B1DCB1542700972663022684F851607E
:102E8000002604AFCDE90246CDE90057FFF704FD67
:102E90002046FFF729FC049805B0F0BD502080F3D0
:102EA0001188BFF34F8FBFF36F8FFEE7502080F381
:102EB0001188BFF34F8FBFF36F8FFEE72DE9F0410D
:102EC0002E4C0027A06B40B1206A401C2062606A33
:102ED00000B101273846BDE8F0816669761C66615D
:102EE00013D16068006838B1502080F31188BFF3B7
:102EF0004F8FBFF36F8FFEE76068A1686160A060CD
:102F0000A06A401CA062FFF735FD206BDFF87080DF
:102F1000864209D36068006880B16068C068C5688F
:102F2000686886420DD220632068C06A00EB800189
:102F300058F821000128CAD90127C8E74FF0FF300F
:102F4000F1E7281DFFF7B8FDA86A18B105F11800D0
:102F5000FFF7B2FDE86A0121A26981401143A16136
:102F600000EB800108EB8100291DFFF7E9FDE86A0D
:102F70002168C96A8842CDD30127CBE738000020F9
:102F8000C00300202DE9F0472C4D00242746A86BF4
:102F900038B1FFF7E1FDA86B401EA863A86B40B1F4
:102FA00046E0502080F31188BFF34F8FBFF36F8F3F
:102FB000FEE72969224E0120D1B3A6F1B40980466B
:102FC0003068E8B1F068C46804F11800FFF774FDD8
:102FD000201DFFF771FDE06AAA6908FA00F11143AC
:102FE000A96100EB800109EB8100211DFFF7A8FD1D
:102FF000E06A2968C96A8842E2D3C5F82480DFE71D
:103000000CB1FFF7B7FC2C6A44B14646FFF756FFF8
:1030100000B16E62641EF9D100202862686A38B17E
:103020000849012738070860BFF34F8FBFF36F8F40
:10303000FFF7B2FD3846BDE8F087000038000020F9
:103040007404002004ED00E0D8300008771F000869
:1030500000000000000000008000000000000000F0
:1030600000000000D4300008C9220008020000005F
:1030700000000000800000000000000000000000D0
:10308000D0300008F11C0008020000000000000021
:10309000800000000000000000000000E430000894
:1030A000250300080200000000000000800000006E
:1030B0000000000000000000000000000000000010
:1030C00001020304060708090000000001020304CE
:1030D000525443005646440064656661756C7454EE
:1030E00061736B00427574746F6E00000C310008E0
:1030F000000000209C000000C0250008A831000846
:103100009C00002014140000D0250008E807FFE010
:10311000E4E90000000000000000000000000000E2
:10312000000000000000000000000000000000009F
:10313000000000000100000010000000000000007E
:103140000024F40000000000000000000000000067
:10315000000000000000000000000000000000006F
:10316000000000000000000000000000000000005F
:10317000000000000000000000000000000000004F
:10318000000000000000000000000000000000003F
:10319000000000000000000000000000AAAAAAAA87
:0831A000000000000000000027
:04000005080000ED02
:00000001FF
