:020000040800F2
:1000000050050020010100089B140008ED110008B4
:10001000991400086D0100088D1800080000000008
:10002000000000000000000000000000EF150008C4
:100030006F010008000000009D140008F115000881
:100040001B0100081B0100081B0100081B01000820
:100050001B0100081B0100081B0100081B01000810
:100060001B0100081B0100081B0100081B01000800
:100070001B0100081B0100081B0100081B010008F0
:100080001B0100081B0100081B0100081B010008E0
:100090001B0100081B0100081B0100081B010008D0
:1000A0001B0100081B0100081B0100081B010008C0
:1000B0001B0100081B0100081B0100081B010008B0
:1000C0001B0100081B0100081B0100081B010008A0
:1000D0001B0100081B0100081B0100081B01000890
:1000E0001B0100081B0100081B010008DFF80CD0F1
:1000F00000F02AF800480047CD18000850050020FD
:100100000648804706480047FEE7FEE7FEE7FEE7B1
:10011000FEE7FEE7FEE7FEE7FEE7FEE775160008EE
:10012000ED000008D2B201E000F8012B491EFBD21D
:1001300070470022F6E710B513460A4604461946F2
:10014000FFF7F0FF204610BD064C074D06E0E068C3
:1001500040F0010394E8070098471034AC42F6D30E
:10016000FFF7C8FF0819000828190008FEE77047C4
:1001700072B6FEE72DE9F84FDFF8B891002409F1D7
:10018000040A0AF1040B23460F270BF1040EC9E001
:100190000125A5402A40AA427DD1674ED1F804C06E
:1001A000ACEB0608B44532D014DCBCF1030F3AD0F6
:1001B00009DCBCF1000F2AD0BCF1010F1CD0BCF14E
:1001C000020F31D11DE0BCF1110F17D0BCF1120F9D
:1001D0002AD119E0B8F5881F19D006DCB8F5803FA0
:1001E00015D0B8F5801F1FD111E0B8F5001F0ED053
:1001F000B8F5041F18D10AE0CB6815E0CB681B1DC9
:1002000012E0CB6808330FE0CB680C330CE08B684E
:100210002BB1012B4FF0080303D0456104E0042308
:1002200002E0056100E00023FF2A01D8064601E054
:1002300000F104064FEA840501D9A5F12005D6F89E
:10024000008007FA05FC28EA0C0803FA05F548EADD
:100250000508C6F800804D68ED0062D5374DAE69DF
:1002600046F00106AE61AD6924F0030605F0010514
:100270000095334D06EB050CDCF80850A607360F49
:1002800007FA06F825EA0805DFF8B880404503D1EB
:100290004FF0000817E044E0DFF8AC80404502D1A1
:1002A0004FF001080FE0DFF8A480404502D14FF085
:1002B000020808E0DFF89880404502D14FF00308BB
:1002C00001E04FF0040808FA06F848EA0508CCF8FF
:1002D00008804D68D9F80060ED034D4601D51643FE
:1002E00000E096432E604D68DAF80060AD03554695
:1002F00001D5164300E096432E604D68DBF80060A0
:10030000ED025D4601D5164300E096432E604D6830
:10031000DEF80060AD02754601D5164300E0964355
:100320002E60641C0D682A46E5407FF431AFBDE8BD
:10033000F88F00000004014000001110001002407E
:100340000000014000080140000C01400010014085
:10035000001401400AB1016170470904FBE7000085
:100360000148806870470000000000200248816852
:10037000027811448160704700000020074810B5E2
:10038000016841F010010160032000F067F80020CF
:1003900000F006F800F024F8002010BD0020024014
:1003A00070B50D4D04464FF47A712878B1FBF0F02A
:1003B0000A490968B1FBF0F000F084FD48B9102C3F
:1003C00007D200222146501E00F028F800206C6061
:1003D00070BD012070BD0000000000200C00002056
:1003E0000C4808B5816941F001018161816901F022
:1003F00001010091C16941F08051C161C06900F003
:10040000805000900448416821F0E06141F00071A3
:10041000416008BD0010024000000140F0B40E4BE6
:100420001B680C46C3F30223C3F10705042D00D952
:100430000425191D072901D2002300E0DB1E012637
:1004400006FA05F1491E214099409E40761E16404D
:100450003143F0BC01F01BBA0CED00E0064900F09E
:10046000070208684FF6FF03184040EA0220034ADB
:1004700010430860704700000CED00E00000FA0532
:10048000014901200862704700000E4210B529A4FE
:1004900001461DCC86B08DE81D002AA02A4C0068BC
:1004A00004900020012923D002293AD010291DD11F
:1004B00061682268D20119D5C1F38342C9031DF8CE
:1004C000020009D5616804AAC1F34041515C1F4A8A
:1004D000B2FBF1F1484301E01D494843616849021C
:1004E00004D440005FF00301B0FBF1F006B010BD92
:1004F000226AC2F30121012903D1920701D5C80361
:10050000F4E7022905D1626A920702D549F6404014
:10051000ECE70329EAD121688903E7D54FF22440AB
:10052000E4E700F033F96168C1F38131491C490007
:10053000DAE7000002030405060708090A0B0C0DA0
:100540000E0F1010010200000010024000127A008D
:1005500000093D002DE9F84305460078354CC007F9
:1005600054D0E0690026C00008D4E06940F0805013
:10057000E061E069012600F0805000902E4801689B
:10058000C90512D40168804641F480710160FFF70B
:10059000E7FE074605E000BFFFF7E2FEC01B642848
:1005A00023D8D8F80000C005F6D5206A10F44070B2
:1005B00021D0A98801F4407181421CD0206A1F49D2
:1005C000012220F440700A6000220A602062C00705
:1005D00011D0FFF7C5FE074641F2883808E000BF9A
:1005E000FFF7BEFEC11B414502D90320BDE8F883D9
:1005F000206A8007F4D5206A696820F440700843B7
:1006000020621EB1E06920F08050E0612878800708
:1006100005D56068A96820F44040084360602878E8
:10062000C00605D56068E96820F480000843606072
:100630000020DBE70010024000700040400442420E
:100640002DE9F0470F46050061D0434E306800F0B9
:100650000700B84209D2306820F007003843306004
:10066000306800F00700B84251D128683B4C810740
:1006700012D5400703D5606840F4E06060602878D8
:10068000000703D5606840F4605060606068A96846
:1006900020F0F000084360602878C00728D0686820
:1006A000012810D02168022810D0890700292EDAED
:1006B000616821F0030101436160FFF751FE80464C
:1006C00041F288390DE021688903EFE78901EDE700
:1006D000FFF746FEA0EB0801494502D90320BDE81B
:1006E000F0876068696800F00C00B0EB810FEFD113
:1006F000306800F00700B8420BD9306820F00700DE
:1007000038433060306800F00700B84201D0012063
:10071000E5E72878400705D56068E96820F4E060DF
:10072000084360602878000706D56068296920F4CE
:10073000605040EAC100606000F038F86168084A23
:10074000C1F30311515CC8400649086006480068BF
:10075000FFF726FE0020C2E7002002400010024002
:10076000EE1800080C000020040000200448054991
:1007700000684968044AC1F30221515CC8407047CF
:100780000C00002000100240FE1800080448054933
:1007900000684968044AC1F3C221515CC8407047EF
:1007A0000C00002000100240FE18000812A185B0C5
:1007B0000FC98DE80F0014A0144A00680490516816
:1007C000134801F00C03042B10D0082B0ED1C1F3F9
:1007D0008343C9031DF803000AD5516804AAC1F375
:1007E0004041515C0A4A5043B0FBF1F005B07047FC
:1007F00008494843FAE70000020304050607080910
:100800000A0B0C0D0E0F1010010200000010024028
:1008100000127A0000093D002DE9F84F040070D065
:100820002078C04DC00749D06868C0F38100012816
:1008300007D06868C0F38100022809D16868C00346
:1008400006D52868800339D560680028E7D035E0F0
:100850006068B0F5803F0BD010B1B0F5A02F11D07B
:10086000286820F480302860286820F4802002E086
:10087000286840F480302860606890B1FFF770FD10
:1008800006460AE0286840F480202860F0E700BFB0
:10089000FFF766FD801B642873D828688003F7D5AE
:1008A0000CE0FFF75DFD064605E000BFFFF758FDD1
:1008B000801B6428F0D828688003F7D420789A4EEB
:1008C00080074FF001094FF0000839D5686810F033
:1008D0000C0F07D06868C0F38100022809D168684E
:1008E000C00306D42868800714D52069012808D1E0
:1008F00010E02069B0B1C6F80090FFF731FD07465F
:1009000005E00AE1FFF72CFDC01B0228C4D82868C7
:100910008007F7D52868616920F0F80040EAC10037
:1009200028600DE0C6F80080FFF71AFD074604E0D6
:10093000FFF716FDC01B022823D828688007F7D4CC
:10094000207800072CD57948A169D9B1C0F800906A
:10095000FFF706FD074604E0FFF702FDC01B022873
:100960000FD8686A8007F7D571484FF4FA510068CC
:10097000B0FBF1F0009000BF0098411E0091FAD248
:100980000EE080E0C0F80080FFF7EAFC074604E0D4
:10099000FFF7E6FCC01B022875D8686A8007F7D409
:1009A0002078400760D5E8690027C00008D4E869CE
:1009B00040F08050E861E869012700F08050009025
:1009C0005C480168C90513D40168834641F480710D
:1009D0000160FFF7C5FC824606E000BFFFF7C0FCE0
:1009E000A0EB0A0064284ED8DBF80000C005F5D55E
:1009F000E06801280AD008B1052813D0286A20F041
:100A000001002862286A20F0040002E0286A40F011
:100A100001002862E06841F2883B98B1FFF7A0FC32
:100A200082460BE0286A40F004002862EEE700BF2F
:100A3000FFF796FCA0EB0A0159455AD8286A8007AF
:100A4000F6D50CE0FFF78CFC824605E0FFF788FC4A
:100A5000A0EB0A0159454CD8286A8007F6D41FB18B
:100A6000E86920F08050E861E06988B36968C1F303
:100A70008101022944D00228C6F8608004D0FFF723
:100A80006FFC044638E034E0FFF76AFC074604E0F8
:100A9000FFF766FCC01B02282BD828688001F7D41A
:100AA000206AB0F5803F05D16868A16820F4003065
:100AB00008436860D4E908010843696821F47411A7
:100AC00008436860C6F86090FFF74AFC044606E0F9
:100AD00025E000BFFFF744FC001B022809D8286866
:100AE0008001F7D51BE000BFFFF73AFC001B02288E
:100AF00002D90320BDE8F88F28688001F4D40EE005
:100B00000128F7D06868226A00F48031914204D14C
:100B1000616A00F47010884201D00120EAE70020E9
:100B2000E8E7000000100240000042428004424218
:100B30000C0000200070004070B5040003D0607C01
:100B4000002610B105E0012070BD2674204600F09B
:100B500043F802206074204600F010F9042578BBA9
:100B6000204600F0A5FC58BB2068416821F0070131
:100B70004160A06820B11748016821F001010160BF
:100B80001448001F0168A26821F4607111430160DC
:100B90006068411C04D10120FFF778FC80B1401E41
:100BA00021688A6822F00F0242EA10428A602168B6
:100BB000CA6860F30F02CA60204600F093FC08B1D7
:100BC0006574C0E7E67301206073A0736074002051
:100BD00070BD0000306C004008B5006808498842CC
:100BE0000DD1FFF74DFC0748C16941F00061C161BB
:100BF000C069054900F0006000900120086008BD50
:100C000000280040001002403C0442422DE9F0411F
:100C10000D4604003BD0C5B3207C01283AD04FF0EC
:100C2000010884F8108002206074E87872B300F044
:100C300036FCE073687800F032FC6073A87800F04E
:100C40002EFCA073C2B2617BE07B00F07DFC2073C0
:100C50002870204600F068FC4FF46161B0FBF1F1B0
:100C6000002518292DD91822B1FBF2F1A1EB0111B1
:100C700001EB4101C1EB011100EBC11631462046E9
:100C800000F0A1FC0427C8B90BE000E004E001205B
:100C9000BDE8F0810220FBE7E07368786073A87814
:100CA000CFE7204600F039FC411C0AD0B04208D200
:100CB00006490144204600F072FC10B167742574A7
:100CC000E5E784F8118025740020E1E780510100F8
:100CD0002DE9F0410D46040024D01DB3207C0128ED
:100CE00023D04FF0010884F8108002206074287827
:100CF000EAB100F0D4FB4FF4616100FB01F66878C3
:100D000000F0CDFBC0EB001006EB8006A87800F0E9
:100D1000C6FB35182946204600F055FC002604275E
:100D200010BB0FE00120BDE8F0810220FBE74FF48B
:100D3000616148436978C1EB011100EB8100A9783A
:100D40004518E7E72068416821F005014160204629
:100D500000F0E3FB411C0AD0A84208D20649014436
:100D6000204600F01CFC10B167742674DAE784F8A2
:100D7000118026740020D6E78051010070B5040070
:100D80000AD02068416821F008014160FFF7E8FAC5
:100D900005464FF47A7608E0012070BDFFF7E0FACF
:100DA000401BB04201D9032070BD20684068000795
:100DB000F4D5002070BD70B5040009D0606A00252C
:100DC00040B125616561A56294F8510040B10CE025
:100DD000012070BD6068B0F5827FF4D0E561F2E774
:100DE00084F85050204600F03FF8022084F851006B
:100DF0002068016821F040010160A088218900F489
:100E0000827001F404410843A18901F400610843A0
:100E1000217C01F002010843217D01F0010108431A
:100E2000218B01F400710843217F01F03801084350
:100E300094F8201001F080010843218D01F4005145
:100E4000084321680860A069042101EA1040216874
:100E500048602068C16921F40061C16165650120B5
:100E600084F85100002070BD00B585B000210091CC
:100E700001910291039100680F4988421AD10F48ED
:100E8000816941F480518161816901F4805104914B
:100E9000816941F0040181618069694600F00400C4
:100EA0000490B02000900220019003200390044899
:100EB000FFF760F905B000BD0030014000100240AE
:100EC0000008014010B5401EB0F1807F01D3012021
:100ED00010BD4FF0E02460610F21601700F0D7FCD7
:100EE0000020A06107202061002010BD70B590F89F
:100EF0003C20012A26D0012480F83C40022280F8C0
:100F00003D2003685A689D6822F070060A683243E3
:100F10005A600D4B02689A4208D0B2F1804F05D05A
:100F20000A4B9A4202D00A4B9A4204D1496825F0F2
:100F300080031943916080F83D40002180F83C1007
:100F4000084670BD022070BD002C01400004004026
:100F50000008004010B5040003D094F83D0010B123
:100F600007E0012010BD002084F83C00204600F07E
:100F70001FF8022084F83D00211D206800F07CFB52
:100F8000012084F8460084F83E0084F83F0084F88D
:100F9000400084F8410084F8420084F8430084F85B
:100FA000440084F8450084F83D00002010BD000096
:100FB00008B50C4A01680C48914207D1816941F497
:100FC00000618161806900F4006009E0B1F1804F47
:100FD00007D1C16941F00101C161C06900F00100A0
:100FE000009008BD002C01400010024070B504467E
:100FF00090F83C00012817D0012584F83C500220CD
:1010000084F83D002068826822F0770222F47F4253
:1010100082600868502830D00DDC20284DD005DCD7
:1010200098B310283BD148E0022070BD302844D04E
:10103000402834D139E0602828D0702806D0B0F597
:10104000805F2CD0B0F5005F29D10AE0CB68D1E9F0
:101050000121206800F046FB2068816841F077019B
:1010600009E0CB68D1E90121206800F03BFB206852
:10107000816841F48041816011E0CA684968206854
:1010800000F085FB5021206807E016E0CA68496837
:10109000206800F08DFB6021206800F02DFB84F8B3
:1010A0003D50002084F83C0070BDCA684968206843
:1010B00000F06DFB40212068EFE7226801461046F2
:1010C000EBE770B5044690F83C00012812D00125EA
:1010D00084F83C50022084F83D00204600F014FBC8
:1010E00001004FF0000007D084F83D5084F83C0028
:1010F000012070BD022070BD2168CA6822F0400244
:10110000CA602168CA6822F48042CA6084F83D50EF
:1011100084F83C00002070BD70B5040004D094F841
:101120003D00002510B106E0012070BD84F83C5060
:10113000204600F023F8242084F83D002068C16890
:1011400021F40051C160204600F044FB2068016991
:1011500021F4904101612068416921F02A01416137
:101160002068C16841F40051C1602564202084F8E2
:101170003D0084F83E00002070BD000030B585B011
:101180000024009401940294039400681449884256
:1011900024D11448816941F480418161816901F45D
:1011A00080410491816941F00401816180690E4DA3
:1011B00000F0040004904FF40070009002200190B1
:1011C0000320039069462846FEF7D4FF2815CDE991
:1011D0000004694628460294FEF7CCFF05B030BDF6
:1011E000003801400010024000080140FEE7000006
:1011F0002DE9F04186B0002428480094019402941F
:101200000394816941F010018161816901F010014D
:101210000491816941F020018161816901F020011F
:101220000491816941F004018161816901F0040147
:101230000491816941F0080181618069184F00F0D3
:1012400008004FF400450490002229463846FFF775
:1012500081F8DFF85080EE11002231464046FFF75A
:1012600079F80620CDE9000401246946404602943D
:10127000FEF780FFCDE90054032569463846CDE9E5
:101280000245FEF777FFCDE9006469464046CDE9A7
:101290000245FEF76FFF06B0BDE8F0810010024086
:1012A000000C0140000801401CB5002419480194BD
:1012B000174900940160611E41604FF480718160A4
:1012C000FFF73AFC08B1FEF753FF8DF804408DF8A4
:1012D00005408DF80640012201A90E48FFF7F8FCF1
:1012E00008B1FEF745FF8DF8004006208DF801009B
:1012F00027208DF802008DF8034001226946054839
:10130000FFF784FC002801D0FEF732FF1CBD00006F
:101310000028004010000020114810B50F4901605E
:101320004FF4827141604FF400418160002102223C
:10133000C0E903125204C0E905121022C0E90721D6
:10134000416281620A21C162FFF735FD002803D0A6
:10135000BDE81040FEF70CBF10BD0000003001409A
:101360002400002010B58CB0002405940694079446
:10137000142168460894FEF7DCFE194809941749C1
:101380000A94C0E900144FF6FF71C0E902410461FC
:1013900044618461FFF7DEFD08B1FEF7E9FE4FF41A
:1013A0008050059005A90E48FFF720FE08B1FEF712
:1013B000DFFE009469460A480194FFF782FE08B1F7
:1013C000FEF7D6FE099409A905480A94FFF78EFD99
:1013D000002801D0FEF7CCFE0CB010BD002C01405F
:1013E0007C00002010B58CB000240594069407946E
:1013F000142168460894FEF79CFE184809944FF0A3
:1014000080410A94C0E900144FF6FF71C0E902411F
:1014100004618461FFF79EFD08B1FEF7A9FE4FF459
:101420008050059005A90D48FFF7E0FD08B1FEF7D3
:101430009FFE0094694609480194FFF742FE08B1F7
:10144000FEF796FE099409A904480A94FFF74EFD99
:10145000002801D0FEF78CFE0CB010BDC4000020A7
:101460000C4810B50A4901604FF4E1314160002198
:1014700081600C22C160C0E904128161C161FFF783
:101480004BFE002803D0BDE81040FEF771BE10BD32
:10149000003801400C010020FEE7FEE7704701091B
:1014A00001EB810100F00F0000EB4100C0B270477A
:1014B00070B50446FEF754FF05464FF47A7606E011
:1014C000FEF74EFF401BB04201D9032070BD2068DB
:1014D00040688006F4D52068416841F01001416001
:1014E000002070BD70B504460068416821F010010D
:1014F0004160FEF735FF05464FF47A7607E000BFFE
:10150000FEF72EFF401BB04201D9032070BD2068BA
:1015100040688006F4D5002070BD0168086A496AF9
:1015200089B241EA00407047006881698AB2C169A6
:101530008BB2816989B28A4203D0C06961F31F40CE
:10154000704743EA02407047F0B56424C1EBC10321
:101550000927A500072603EB01130329B3FBF7F1C5
:1015600000F5FA60114401440AD2401EB0FBF4F2C7
:1015700001EB9001B0FBF5F0891A0844001D08E06A
:10158000B0FBF4F201EB9001B0FBF5F0891A0844CE
:10159000801CB0FBF6F106FB1100C0B2F0BD70B5C7
:1015A0000D4606460024FFF783FF48B93168280C32
:1015B00008623168A8B248623046FFF793FF00B175
:1015C0000124204670BD70B50D4606460024FFF785
:1015D0006FFF48B93168280C88613168A8B2C861CA
:1015E0003046FFF77FFF00B10124204670BD7047F1
:1015F000FEF7BCBE70B594B028216846FEF799FD91
:1016000014210AA8FEF795FD00250F950920012455
:1016100010950090119512954FF480300494069423
:10162000CDE901050226CDE907604FF4E0100990ED
:101630006846FFF7F1F808B172B6FEE70F20CDE972
:101640000A064FF48060CDE90C5002210AA80E95DD
:10165000FEF7F6FF08B172B6FEE74FF40070CDE971
:101660000F400FA8FEF776FF002801D072B6FEE704
:1016700014B070BD70470000F0B50268164B174CEF
:10168000174D4FF08047984205D0B84203D0A04292
:1016900001D0A84203D122F070064A683243984232
:1016A00005D0B84203D0A04201D0A84203D122F411
:1016B0004074CA6822434C6922F0800222430260CF
:1016C0008A68C2620A688262984201D1096901632C
:1016D00001214161F0BD0000002C014000040040E8
:1016E0000008004010B5846842EA032224F47F44D5
:1016F0000A432243826010BD826822F070020A43CE
:1017000042F007018160704710B503689A6822F0C3
:1017100070044A68224322F007040A6822439A6050
:101720004A6812F00F0F30D11211082A2DD2DFE8CB
:1017300002F02C2C2C2C0B2127040B69D1E902215F
:101740000068FFF7CFFF20E00A68052A10D0026882
:10175000136A146A24F00104146202689469096926
:1017600024F0F00444EA01119161006803620CE086
:10177000012010BD0A698968006800F008F804E0DB
:101780000A698968006800F013F8002010BD10B5E0
:10179000036A046A24F001040462846924F0F004FA
:1017A00044EA021423F00A020A438461026210BD73
:1017B00010B5036A23F0100303628369046A23F4FB
:1017C000704343EA023224F0A00343EA011182612C
:1017D000016210BD70B5044600680169E26821F439
:1017E0004051114301612169A068084361690843C0
:1017F0002168CA6841F20C639A430243CA602068B8
:101800004169A26921F44071114341611E49206878
:10181000884202D1FEF7BAFF01E0FEF7A7FF00EB16
:10182000C00101EB0012606864218000B2FBF0F39C
:10183000B3FBF1F36FF018067343B2FBF0F5B2FBA4
:10184000F0F605EB8305322303EB0515B5FBF1F547
:10185000B6FBF1F605F0F00505EB0615B2FBF0F668
:10186000B2FBF0F0B0FBF1F06FF01802504306EB62
:10187000800003EB0010B0FBF1F0216800F00F00D6
:101880002844886070BD000000380140FEE7090769
:10189000090E002804DB00F1E02080F800147047F6
:1018A00000F00F0000F1E02080F8141D704702E006
:1018B00008C8121F08C1002AFAD1704770470020DB
:1018C00001E001C1121F002AFBD17047FEF756FD4F
:1018D000FFF790FEFFF78CFCFFF7E6FCFFF71CFD1F
:1018E000FFF740FDFFF77EFDFFF7BAFDFEE70000C2
:1018F00000000000000001020304060708090000C0
:101900000000010203040000281900080000002064
:1019100010000000AE180008381900081000002060
:1019200040050000BE180008010000001000000083
:08193000000000000024F40097
:04000005080000ED02
:00000001FF
