:020000040800F2
:1000000040150020990100087F1F0008611C0008AE
:100010007D1F00082103000895240008000000004F
:1000200000000000000000000000000001010008C6
:10003000A503000800000000450100082D2200086B
:10004000B3010008B3010008B3010008B3010008C0
:10005000B3010008B3010008B3010008B3010008B0
:10006000B3010008B3010008B3010008B3010008A0
:10007000B3010008B3010008B3010008B301000890
:10008000B3010008B3010008B3010008B301000880
:10009000B3010008B3010008B3010008B301000870
:1000A000B3010008E1220008B3010008B301000811
:1000B000ED220008B3010008F9220008B30100088E
:1000C000B3010008B3010008B3010008B301000840
:1000D000B3010008B3010008B3010008B301000830
:1000E000B3010008B3010008B3010008DFF80CD029
:1000F00000F09AF800480047492900084015002000
:10010000224B19680868B0E8F00F80F30988BFF344
:100110006F8F4FF0000080F311884EF00D0E704786
:100120000000000006480068006880F3088862B696
:1001300061B6BFF34F8FBFF36F8F00DF00BF00BF0B
:1001400008ED00E0EFF30980BFF36F8F0F4B1A68E3
:1001500020E9F00F106008B54FF0500080F31188CF
:10016000BFF34F8FBFF36F8F02F094FF4FF000008B
:1001700080F31188BDE8084019680868B0E8F00FFE
:1001800080F30988BFF36F8F704700BF38000020ED
:10019000EFF3058070470000064880470648004797
:1001A000FEE7FEE7FEE7FEE7FEE7FEE7FEE7FEE727
:1001B000FEE7FEE7DF220008ED0000080649074AD7
:1001C0000868504343F23902104408604008704701
:1001D0000149086070470000980000206D4EC6413C
:1001E00040EA01039B0703D009E008C9121F08C0B9
:1001F000042AFAD203E011F8013B00F8013B521E39
:10020000F9D27047D2B201E000F8012B491EFBD2AF
:1002100070470022F6E710B513460A460446194611
:10022000FFF7F0FF204610BD064C074D06E0E068E2
:1002300040F0010394E8070098471034AC42F6D32D
:10024000FFF758FF783400089834000870B504466A
:1002500000688168C943C90717D1816821F001018D
:10026000816000F0EBFB05460AE000BF00F0E6FB12
:10027000401B022804D920688068C043C00706D00C
:1002800020688068C043C007F0D0002070BDA06A1D
:1002900040F01000A062E06A40F00100E06201203E
:1002A00070BD0000F8B5002604460096006881681D
:1002B000C943C9072DD0816841F00101816016480A
:1002C00016490068B0FBF1F000E0401E00900028E5
:1002D000FBD100F0B3FB054616E000BF00F0AEFB1B
:1002E000401B022810D920688068C043C0070BD08B
:1002F000A06A40F01000A062E06A40F00100E062F5
:1003000084F824600120F8BD20688068C043C007DD
:10031000E4D10020F8BD00003400002040420F006E
:10032000FEE700001A4D1B4C1B4E01270221204600
:1003300000F07AFB20B10421204600F075FBD0B913
:10034000052002F029FB0221204600F06DFB28B1B8
:100350000421204600F068FB40B10CE0287838B951
:100360002F700E4801F0EAF90C480DE0307830B1FA
:10037000012002F011FB012002F00EFBD6E73770DE
:10038000074801F0DBF9064801F000FAF3E7000046
:1003900009000020000801400A000020340300206A
:1003A0007C030020704772B6FEE70000F8B5002419
:1003B000009490F824202546012A12D0012280F8CA
:1003C00024204A681F23072A0DD20668776B521E25
:1003D00002EB820293409F430B6893401F43776375
:1003E00019E00220F8BD06680D2A0AD2376BD21F29
:1003F00002EB820293409F430B6893401F43376395
:1004000009E0F76A0D3A02EB820293409F430B68C2
:1004100093401F43F7620A68072306680A2A0AD333
:10042000F7680A3A02EB420293409F438B6893407D
:100430001F43F76008E0376902EB420293409F4395
:100440008B6893401F4337610A68102A01D0112A34
:1004500020D1124B02689A4217D193681B0219D41B
:10046000936843F4000393600968102912D10C4982
:100470000C4A0968B1FBF2F101EB8101490000E08F
:10048000491E00910029FBD104E0816A41F020015E
:100490008162012480F824502046F8BD00240140E8
:1004A0003400002040420F00806A70470068C06C32
:1004B000704700002DE9F0414FF0000704003D4671
:1004C0007ED0A06A002628B9E66284F8246020461F
:1004D00000F07EF82046FFF7B9FEA16AC90600D4F5
:1004E00020B1A06A40F01000A06269E0A16A21F486
:1004F000885141F00201A1626268E169237B0A43ED
:1005000047EA43010A43A1684FF48077B94209D012
:10051000012907D05FF0000194F814C0BCF1010F6D
:1005200002D00AE03946F7E7F3B1A36A43F02003AB
:10053000A362E36A43F00103E3622368D3F804C0D3
:100540002CF4694C4CEA010CC3F804C021688B6898
:10055000DFF870C003EA0C0313438B60A168B94253
:100560000BD0012909D00CE0DFF85CC0A3690CEBCB
:1005700043330B4343F40061DFE7218A0D05A5F502
:1005800080152168CB6A23F470032B43CB6221686A
:1005900089680E4B1940914208D1E662A16A21F0A8
:1005A000020141F00101A162BDE8F081A06A20F0E2
:1005B000020040F01000A062E06A40F00100E0623A
:1005C0000120F1E7FDF7E1FF00E0FFFFFE0E1FFF56
:1005D00000B585B00021009101910291039100685E
:1005E0000E49884218D10E48816941F40071816139
:1005F000816901F400710491816941F00401816114
:100600008069694600F004000490012000900320F6
:100610000190044800F018F905B000BD0024014025
:1006200000100240000801402DE9F84300270D4664
:100630000446009700F002FA804620688168C905E8
:1006400008D5A06A40F02000A06284F82470012040
:10065000BDE8F8834168C90503D4C06A10F4700F7F
:100660002AD0022000F0AEFA3B490968B1FBF0F64F
:100670002068036939490B424FEA61014FEAA11230
:100680001FD1C3684FEA611C13EA0C0F19D103692B
:100690000B4225D1C068104222D1142023E0681CEF
:1006A0000AD02DB100F0CAF9A0EB0800A84203D986
:1006B00020680068800725D5206800688007EED58F
:1006C0002DE003690B4202D1C168114206D00269D4
:1006D00023490A4206D1C068084203D1542002E0EF
:1006E000292000E0FC204643009816E0681C11D049
:1006F0002DB100F0A3F9A0EB0800A8420AD9009898
:10070000B04207D2A06A40F00400A06284F82470CE
:1007100003209DE70098401C0090B042E6D321687A
:100720006FF012000860A06A40F40070A0622068B8
:100730008068C0F3424007280CD1207B50B9A06AE2
:1007400020F48070A062A06AC00403D4A06A40F0C4
:100750000100A06200207BE734000020244992249D
:100760004992240070B5044690F8240001280DD069
:10077000012084F824002046FFF794FD02004FF08A
:10078000000005D084F82400104670BD022070BD22
:10079000A16A40F20123994341F48071A1621F4D87
:1007A00023681F49AB4218D10E6816F4702F14D07D
:1007B000A66A46F48016A6620E68760505D5A66A76
:1007C00026F4005646F48056A662A66AF6040AD5B8
:1007D000E66A26F00606E66206E0A66A26F48016B9
:1007E000A6625E68E9E7E06284F824006FF0020028
:1007F000186020688368C3F34243072B05D1A842E1
:1008000008D1096811F4702F04D0816841F4801177
:100810008160B9E7816841F4A001F9E7002801404F
:100820000424014070B5044600F008F90546601C38
:1008300002D004480078044400F000F9401BA042B4
:10084000FAD370BD280000202DE9F84FDFF8B891E9
:10085000002409F1040A0AF1040B23460F270BF1C7
:10086000040EC9E00125A5402A40AA427DD1674E69
:10087000D1F804C0ACEB0608B44532D014DCBCF1AE
:10088000030F3AD009DCBCF1000F2AD0BCF1010FF4
:100890001CD0BCF1020F31D11DE0BCF1110F17D0FB
:1008A000BCF1120F2AD119E0B8F5881F19D006DC67
:1008B000B8F5803F15D0B8F5801F1FD111E0B8F50D
:1008C000001F0ED0B8F5041F18D10AE0CB6815E060
:1008D000CB681B1D12E0CB6808330FE0CB680C33EC
:1008E0000CE08B682BB1012B4FF0080303D045615E
:1008F00004E0042302E0056100E00023FF2A01D8A0
:10090000064601E000F104064FEA840501D9A5F18D
:100910002005D6F8008007FA05FC28EA0C0803FA3F
:1009200005F548EA0508C6F800804D68ED0062D577
:10093000374DAE6946F00106AE61AD6924F003069D
:1009400005F001050095334D06EB050CDCF8085069
:10095000A607360F07FA06F825EA0805DFF8B8807B
:10096000404503D14FF0000817E044E0DFF8AC80C9
:10097000404502D14FF001080FE0DFF8A480404568
:1009800002D14FF0020808E0DFF89880404502D11C
:100990004FF0030801E04FF0040808FA06F848EAAF
:1009A0000508CCF808804D68D9F80060ED034D4685
:1009B00001D5164300E096432E604D68DAF80060DA
:1009C000AD03554601D5164300E096432E604D68B1
:1009D000DBF80060ED025D4601D5164300E096436A
:1009E0002E604D68DEF80060AD02754601D51643F5
:1009F00000E096432E60641C0D682A46E5407FF4B3
:100A000031AFBDE8F88F0000000401400000111074
:100A1000001002400000014000080140000C0140AD
:100A200000100140001401408068084000D00120FF
:100A300070470AB1016170470904FBE7014880680B
:100A400070470000280000200248816802781144A5
:100A50008160704728000020074810B5016841F008
:100A600010010160032000F095F8002000F006F866
:100A700000F03EF8002010BD0020024000B5014605
:100A800087B000221E2000F065F81E2000F054F808
:100A90001348C16941F00401C161C06905A900F0B2
:100AA00004000690684600F0FDF900F021FA0D49B7
:100AB0004000B0FBF1F10D480B4A491E0260416055
:100AC00040F2E7320021C0E90321816000F0D8FD47
:100AD00010B1012007B000BD044800F057FEF9E74F
:100AE0000010024040420F000008004008040020AF
:100AF0000F4808B5816941F001018161816901F008
:100B000001010091C16941F08051C161C0690022B9
:100B100000F0805000900F21901E00F01BF8054857
:100B2000416821F0E06141F00071416008BD0000C2
:100B30000010024000000140002809DB00F01F0205
:100B4000012191404009800000F1E020C0F800112F
:100B500070470000F0B40E4B1B680C46C3F3022331
:100B6000C3F10705042D00D90425191D072901D259
:100B7000002300E0DB1E012606FA05F1491E214094
:100B800099409E40761E16403143F0BC01F0BCBE39
:100B90000CED00E0064900F0070208684FF6FF037D
:100BA000184040EA0220034A1043086070470000E2
:100BB0000CED00E00000FA050149012008627047D1
:100BC00000000E4210B529A401461DCC86B08DE868
:100BD0001D002AA02A4C006804900020012923D07F
:100BE00002293AD010291DD161682268D20119D595
:100BF000C1F38342C9031DF8020009D5616804AA44
:100C0000C1F34041515C1F4AB2FBF1F1484301E09E
:100C10001D4948436168490204D440005FF0030164
:100C2000B0FBF1F006B010BD226AC2F30121012928
:100C300003D1920701D5C803F4E7022905D1626AFE
:100C4000920702D549F64040ECE70329EAD1216832
:100C50008903E7D54FF22440E4E700F059F96168D1
:100C6000C1F38131491C4900DAE7000002030405A1
:100C7000060708090A0B0C0D0E0F101001020000E8
:100C80000010024000127A0000093D002DE9F843EF
:100C900005460078354CC00754D0E0690026C000F6
:100CA00008D4E06940F08050E061E069012600F07E
:100CB000805000902E480168C90512D40168804612
:100CC00041F480710160FFF7B9FE074605E000BFFF
:100CD000FFF7B4FEC01B642823D8D8F80000C00575
:100CE000F6D5206A10F4407021D0A98801F4407133
:100CF00081421CD0206A1F49012220F440700A6002
:100D000000220A602062C00711D0FFF797FE074655
:100D100041F2883808E000BFFFF790FEC11B414553
:100D200002D90320BDE8F883206A8007F4D5206A41
:100D3000696820F44070084320621EB1E06920F029
:100D40008050E0612878800705D56068A96820F4A4
:100D50004040084360602878C00605D56068E968AF
:100D600020F48000084360600020DBE700100240B0
:100D700000700040400442422DE9F0470F46050054
:100D800061D0434E306800F00700B84209D23068A5
:100D900020F0070038433060306800F00700B842A8
:100DA00051D128683B4C810712D5400703D56068B4
:100DB00040F4E06060602878000703D5606840F484
:100DC000605060606068A96820F0F00008436060CF
:100DD0002878C00728D06868012810D02168022828
:100DE00010D0890700292EDA616821F00301014340
:100DF0006160FFF723FE804641F288390DE02168EB
:100E00008903EFE78901EDE7FFF718FEA0EB080182
:100E1000494502D90320BDE8F0876068696800F0A1
:100E20000C00B0EB810FEFD1306800F00700B84242
:100E30000BD9306820F0070038433060306800F08C
:100E40000700B84201D00120E5E72878400705D522
:100E50006068E96820F4E060084360602878000773
:100E600006D56068296920F4605040EAC1006060DE
:100E700000F05EF86168084AC1F30311515CC84094
:100E80000649086006480068FFF7F8FD0020C2E741
:100E900000200240001002404434000834000020CA
:100EA0002C0000200F2202600C4A536803F0030359
:100EB0004360536803F0F0038360536803F4E06316
:100EC000C36052684FF4E06303EAD202026104484F
:100ED000006800F007000860704700000010024042
:100EE00000200240014800687047000034000020E4
:100EF0000448054900684968044AC1F30221515C6D
:100F0000C8407047340000200010024054340008EC
:100F10000448054900684968044AC1F3C221515C8C
:100F2000C8407047340000200010024054340008CC
:100F300012A185B00FC98DE80F0014A0144A0068F3
:100F400004905168134801F00C03042B10D0082BB7
:100F50000ED1C1F38343C9031DF803000AD55168BC
:100F600004AAC1F34041515C0A4A5043B0FBF1F07E
:100F700005B0704708494843FAE70000020304053A
:100F8000060708090A0B0C0D0E0F101001020000D5
:100F90000010024000127A0000093D002DE9F84FD0
:100FA000040070D02078C04DC00749D06868C0F3F5
:100FB0008100012807D06868C0F38100022809D1A8
:100FC0006868C00306D52868800339D560680028A2
:100FD000E7D035E06068B0F5803F0BD010B1B0F5D8
:100FE000A02F11D0286820F480302860286820F4D1
:100FF000802002E0286840F480302860606890B16A
:10100000FFF71CFD06460AE0286840F480202860AF
:10101000F0E700BFFFF712FD801B642873D8286833
:101020008003F7D50CE0FFF709FD064605E000BF99
:10103000FFF704FD801B6428F0D828688003F7D4EC
:1010400020789A4E80074FF001094FF0000839D5FB
:10105000686810F00C0F07D06868C0F381000228A0
:1010600009D16868C00306D42868800714D52069B0
:10107000012808D110E02069B0B1C6F80090FFF750
:10108000DDFC074605E00AE1FFF7D8FCC01B02289B
:10109000C4D828688007F7D52868616920F0F8006F
:1010A00040EAC10028600DE0C6F80080FFF7C6FCEA
:1010B000074604E0FFF7C2FCC01B022823D82868BB
:1010C0008007F7D4207800072CD57948A169D9B1D9
:1010D000C0F80090FFF7B2FC074604E0FFF7AEFC53
:1010E000C01B02280FD8686A8007F7D571484FF4F3
:1010F000FA510068B0FBF1F0009000BF0098411E6B
:101100000091FAD20EE080E0C0F80080FFF796FC74
:10111000074604E0FFF792FCC01B022875D8686AF6
:101120008007F7D42078400760D5E8690027C00021
:1011300008D4E86940F08050E861E869012700F0D0
:10114000805000905C480168C90513D4016883464B
:1011500041F480710160FFF771FC824606E000BF38
:10116000FFF76CFCA0EB0A0064284ED8DBF8000007
:10117000C005F5D5E06801280AD008B1052813D0CC
:10118000286A20F001002862286A20F0040002E0AA
:10119000286A40F001002862E06841F2883B98B17B
:1011A000FFF74CFC82460BE0286A40F004002862FE
:1011B000EEE700BFFFF742FCA0EB0A0159455AD801
:1011C000286A8007F6D50CE0FFF738FC824605E078
:1011D000FFF734FCA0EB0A0159454CD8286A800778
:1011E000F6D41FB1E86920F08050E861E06988B367
:1011F0006968C1F38101022944D00228C6F86080E1
:1012000004D0FFF71BFC044638E034E0FFF716FC7F
:10121000074604E0FFF712FCC01B02282BD8286801
:101220008001F7D4206AB0F5803F05D16868A168D5
:1012300020F4003008436860D4E908010843696875
:1012400021F4741108436860C6F86090FFF7F6FB5C
:10125000044606E025E000BFFFF7F0FB001B022874
:1012600009D828688001F7D51BE000BFFFF7E6FB2F
:10127000001B022802D90320BDE8F88F28688001EE
:10128000F4D40EE00128F7D06868226A00F48031B7
:10129000914204D1616A00F47010884201D00120AB
:1012A000EAE70020E8E700000010024000004242A8
:1012B0008004424234000020007000402DE9F047D5
:1012C00091460C465FEA00084AD084B3D8F8000083
:1012D0004068400744D4404600F040FF4FF461624C
:1012E0000546B0FBF2F1B0FBF2F302FB13503C23D6
:1012F000B0FBF3F0B5FBF2F6607002FB1650B0FBEA
:10130000F3F203FB1200A070182931D31820B1FBAF
:10131000F0F7B1FBF0F200FB12102070404600F035
:1013200016FF411C04D0A84202D9461B02E017E078
:101330004FF0FF36A7EB071000EB4000C0EB0010AA
:1013400005EBC0152946404600F057FF40B9701C18
:1013500001D0711900E03146404600F03AFF10B16B
:101360000120BDE8F0873946404600F063FE00E00A
:101370002170B9F1000F0BD0207800F00AFE207028
:10138000607800F006FE6070A07800F002FEA070A9
:101390000020E6E770B5040003D0607C002610B1A1
:1013A00005E0012070BD2674204600F043F80220BD
:1013B0006074204600F010F9042578BB204600F048
:1013C00090FE58BB2068416821F007014160A06889
:1013D00020B11748016821F0010101601448001F85
:1013E0000168A26821F46071114301606068411CCA
:1013F00004D10120FFF7E6FB80B1401E21688A6816
:1014000022F00F0242EA10428A602168CA6860F343
:101410000F02CA60204600F07FFE08B16574C0E785
:10142000E67301206073A0736074002070BD00003B
:10143000306C004008B50068084988420DD1FFF7BC
:10144000BBFB0748C16941F00061C161C069054942
:1014500000F0006000900120086008BD00280040F6
:10146000001002403C0442422DE9F0410D460400C8
:101470003BD0C5B3207C01283AD04FF0010884F856
:10148000108002206074E87872B300F079FDE07398
:10149000687800F075FD6073A87800F071FDA073A6
:1014A000C2B2617BE07B00F069FE207328702046A9
:1014B00000F054FE4FF46161B0FBF1F100251829F2
:1014C0002DD91822B1FBF2F1A1EB011101EB410181
:1014D000C1EB011100EBC1163146204600F08DFE34
:1014E0000427C8B90BE000E004E00120BDE8F0816A
:1014F0000220FBE7E07368786073A878CFE72046A6
:1015000000F025FE411C0AD0B04208D20649014431
:10151000204600F05EFE10B167742574E5E784F89C
:10152000118025740020E1E7805101002DE9F04190
:101530000D46040024D01DB3207C012823D04FF099
:10154000010884F81080022060742878EAB100F065
:1015500017FD4FF4616100FB01F6687800F010FDA3
:10156000C0EB001006EB8006A87800F009FD3518E6
:101570002946204600F041FE0026042710BB0FE05C
:101580000120BDE8F0810220FBE74FF46161484390
:101590006978C1EB011100EB8100A9784518E7E7F4
:1015A0002068416821F005014160204600F0CFFD30
:1015B000411C0AD0A84208D206490144204600F046
:1015C00008FE10B167742674DAE784F81180267477
:1015D0000020D6E78051010070B504000AD02068D1
:1015E000416821F008014160FFF728FA05464FF4F1
:1015F0007A7608E0012070BDFFF720FA401BB04268
:1016000001D9032070BD206840680007F4D5002090
:1016100070BD70477047000070B590F83C20012AFB
:1016200026D0012480F83C40022280F83D20036847
:101630005A689D6822F070060A6832435A600D4B62
:1016400002689A4208D0B2F1804F05D00A4B9A4204
:1016500002D00A4B9A4204D1496825F0800319430D
:10166000916080F83D40002180F83C10084670BD34
:10167000022070BD002C0140000400400008004022
:1016800010B5040003D094F83D0010B107E001202C
:1016900010BD002084F83C00204600F01FF8022016
:1016A00084F83D00211D206800F02CFE012084F804
:1016B000460084F83E0084F83F0084F8400084F837
:1016C000410084F8420084F8430084F8440084F820
:1016D000450084F83D00002010BD000008B5154A03
:1016E0000168154891420ED1816941F40061816120
:1016F0008069002200F40060009005211920FFF7A6
:1017000029FA192010E0B1F1804F11D1C16941F0DF
:101710000101C161C069002200F0010000900521B3
:101720001C20FFF717FA1C20BDE80840FFF704BA99
:1017300008BD0000002C01400010024090F83D1050
:10174000012901D001207047022180F83D10006876
:101750000B49884208D0B0F1804F05D00949884232
:1017600002D00949884204D1816801F007010629A5
:1017700003D0016841F001010160002070470000C2
:10178000002C0140000400400008004090F83D108B
:10179000012901D001207047022180F83D10016825
:1017A000CA6842F00102CA6000680B49884208D04A
:1017B000B0F1804F05D00949884202D008498842DB
:1017C00004D1816801F00701062903D0016841F0C6
:1017D0000101016000207047002C0140000400401E
:1017E0000008004001680A6A41F211131A4207D149
:1017F0000A6A9B101A4203D10A6822F001020A60A9
:10180000012180F83D10002070470168CA6822F06D
:101810000102CA6001680A6A41F211131A4207D133
:101820000A6A9B101A4203D10A6822F001020A6078
:10183000012180F83D100020704770B5044690F8F3
:101840003C00012817D0012584F83C50022084F880
:101850003D002068826822F0770222F47F42826095
:101860000868502830D00DDC20284DD005DC98B316
:1018700010283BD148E0022070BD302844D04028D9
:1018800034D139E0602828D0702806D0B0F5805FC8
:101890002CD0B0F5005F29D10AE0CB68D1E9012155
:1018A000206800F065FD2068816841F0770109E05B
:1018B000CB68D1E90121206800F05AFD20688168D9
:1018C00041F48041816011E0CA684968206800F0F5
:1018D00061FD5021206807E016E0CA684968206869
:1018E00000F069FD6021206800F04CFD84F83D5057
:1018F000002084F83C0070BDCA684968206800F088
:1019000049FD40212068EFE7226801461046EBE7D9
:10191000704770B50446006801694FF00005C9437F
:10192000890715D4C168C943890711D4E91E01612B
:1019300001202077206880698007204602D0FFF7C9
:10194000E7FF04E000F098F8204600F096F82577CD
:1019500020680169C943490717D4C168C9434907C9
:1019600013D46FF0040101610220207720688069A0
:1019700010F4407F204602D0FFF7CAFF04E000F0D9
:101980007BF8204600F079F8257720680169C94383
:10199000090716D4C168C943090712D46FF00801BA
:1019A0000161042020772068C0698007204602D0AA
:1019B000FFF7AEFF04E000F05FF8204600F05DF8AE
:1019C000257720680169C943C90617D4C168C9438E
:1019D000C90613D46FF01001016108202077206838
:1019E000C06910F4407F204602D0FFF791FF04E069
:1019F00000F042F8204600F040F8257720680169A1
:101A0000C943C90708D1C168C943C90704D1891EA0
:101A10000161204600F032F820680169C9430906D7
:101A200009D4C168C943090605D46FF0800101617A
:101A30002046FFF7EEFD20680169C943490609D435
:101A4000C168C943490605D46FF0400101612046D1
:101A500000F09CF820680169C94389060BD4C1686D
:101A6000C943890607D46FF0200101612046BDE813
:101A70007040FFF7CFBD70BD704770472DE9F0474C
:101A80003D4FDFF8F89000253D4C06466FF0010809
:101A9000B84231D13846FFF7B8FE3846FFF7A2FE0C
:101AA0003968C1F8108002214846FEF7BDFF18B121
:101AB0006078012809D015E061780120012901D062
:101AC00060700FE06570A0700CE0607918B160790B
:101AD000012809D06571A079401CC0B2A0711728F7
:101AE00000D9A571E5703CE0E079401CC0B2E0711E
:101AF0003B28F7D9E571F5E7224FBE4231D1384690
:101B0000FFF783FE3846FFF76DFE3968C1F8108095
:101B100004214846FEF788FF0028607802D001289B
:101B200011D01DE0012803D0607848B1657017E03E
:101B30006079401C60716079012811D965710FE0EE
:101B4000022060700CE0607918B16079012804D03F
:101B50006571A079401EA07102E0E079401EE0713D
:101B6000257109493068884203D1BDE8F047FEF786
:101B70006BBFBDE8F087000034030020000801407F
:101B8000060000207C03002000080040704770B56C
:101B9000040004D094F83D00002510B106E00120B7
:101BA00070BD84F83C50204600F022F8242084F8D0
:101BB0003D002068C16821F40051C160204600F05A
:101BC0000DFC2068016921F49041016120684169A0
:101BD00021F02A0141612068C16841F40051C160CF
:101BE0002564202084F83D0084F83E00002070BD6C
:101BF00030B585B0002400940194029403940068E9
:101C00001449884223D11448816941F4804181619B
:101C1000816901F480410491816941F0040181618D
:101C200080690E4D00F0040004904FF400700090A5
:101C300002200190039069462846FEF705FE28150C
:101C4000CDE90004694628460294FEF7FDFD05B083
:101C500030BD000000380140001002400008014083
:101C6000FEE700003EB50024114800940194029460
:101C70000E498460016004730475012505614FF409
:101C800060214460C161FEF715FC08B1FEF78BFBD3
:101C9000CDE90045694606480294FEF787FB08B186
:101CA000FEF781FB0248FEF75DFD3EBD00240140CA
:101CB000F002002010B59CB01C2216496846FEF7C1
:101CC0008FFA0021684600F073FE134C11491C2264
:101CD000A0601C3107A8FEF783FA002107A800F0D6
:101CE00067FE0C49E0601C2238310EA8FEF778FA36
:101CF00000210EA800F05CFE064920611C22543130
:101D000015A8FEF76DFA002115A800F051FE6061DC
:101D10001CB010BDD4330008100000202DE9F041A4
:101D200086B00024294800940194029403948169A8
:101D300041F010018161816901F010010491816914
:101D400041F020018161816901F0200104918169E4
:101D500041F004018161816901F00401049181690C
:101D600041F0080181618069194F00F008004FF4CB
:101D7000D8750490002229463846FEF75AFEDFF84F
:101D800054804FF40046002231464046FEF751FE93
:101D90000620CDE900040124694638460294FEF786
:101DA00053FDCDE90054032569463846CDE9024587
:101DB000FEF74AFDCDE9006469464046CDE902459B
:101DC000FEF742FD06B0BDE8F081000000100240C1
:101DD00000080140000C01401CB500241948019482
:101DE000174900940160611E41604FF48071816069
:101DF000FFF7D0FA08B1FEF7D6FA8DF804408DF857
:101E000005408DF80640012201A90E48FFF78EFB20
:101E100008B1FEF7C8FA8DF8004006208DF80100E1
:101E200027208DF802008DF80340012269460548FD
:101E3000FFF71AFB002801D0FEF7B5FA1CBD000021
:101E4000002800402003002030B587B000251D4C3D
:101E50000095019502950395049519480595206014
:101E600048F69F40C4E9010544F61F60C4E9030534
:101E700065612046A561FFF703FC08B1FEF793FA00
:101E80004FF48050009069460E48FFF7D6FC08B129
:101E9000FEF789FA049504A90A480595FFF7BCFBEB
:101EA00008B1FEF780FA0748FFF7AFFC0548FFF7D7
:101EB00099FC21686FF00100086107B030BD000097
:101EC000002C01403403002030B587B000251C4CA5
:101ED000009501950295039504954FF08040059576
:101EE000206048F69F40C4E9010544F61F60C4E93C
:101EF00003052046A561FFF7C3FB08B1FEF753FABF
:101F00004FF48050009069460D48FFF796FC08B1E9
:101F1000FEF749FA049504A909480595FFF77CFBEB
:101F200008B1FEF740FA0648FFF76FFC0448FFF7D8
:101F300059FC21686FF00100086107B030BD000056
:101F40007C0300200C4810B50A4901604FF4E131D0
:101F50004160002181600C22C160C0E904128161EE
:101F6000C161FFF714FE002803D0BDE81040FEF762
:101F70001ABA10BD00380140C4030020FEE7FEE796
:101F8000010901EB810100F00F0000EB4100C0B23C
:101F90007047002102E00A38C0B2491C0A28FAD270
:101FA000090740EA1160704708B51B4E1B4F1C4DD6
:101FB000DFF870800024307830B1307801280DD0FF
:101FC000012000F0E9FCF6E715490122C91E164878
:101FD000FFF774F9EFE7012000F0DEFC3878002805
:101FE000F9D13C701148124900782870097869705D
:101FF000AC7098F80020002ADDD08DF800008DF834
:1020000001108DF80240012269460748FFF78EFA59
:1020100088F80040CFE700000700002006000020FD
:102020001300002008000020200300200C000020E6
:102030000D0000202DE9F04104460025C07B627BA5
:10204000A37B42E0012A16D0032A14D0052A12D01D
:10205000072A10D0082A0ED00A2A0CD00C2A0AD03F
:10206000042A10D0062A0ED0092A0CD00B2A0AD036
:10207000022A0DD028E01F2B0CD30C2A05D10122F7
:102080001346401C20E01E2B04D30123521C1BE0EE
:102090001C2B02D203F1010316E011D183B29E077B
:1020A00010D16426B3FBF6F706FB173636B94FF4AA
:1020B000C876B3FBF6F706FB17331BB91D2303E005
:1020C0001D2B01D1032201236D1C8D42BAD3D1B245
:1020D000E0736173DAB2A27300F050F82073BDE8C8
:1020E000F08170B50446FEF7A9FC05464FF47A76F8
:1020F00006E0FEF7A3FC401BB04201D9032070BDEF
:10210000206840688006F4D52068416841F01001DD
:102110004160002070BD000070B504460068416851
:1021200021F010014160FEF789FC05464FF47A76F4
:1021300007E000BFFEF782FC401BB04201D903203C
:1021400070BD206840688006F4D5002070BD01682D
:10215000086A496A89B241EA0040704700688169AB
:102160008AB2C1698BB2816989B28A4203D0C069DF
:1021700061F31F40704743EA02407047F0B56424A2
:10218000C1EBC1030927A500072603EB01130329AF
:10219000B3FBF7F100F5FA60114401440AD2401E86
:1021A000B0FBF4F201EB9001B0FBF5F0891A0844A2
:1021B000001D08E0B0FBF4F201EB9001B0FBF5F07C
:1021C000891A0844801CB0FBF6F106FB1100C0B26E
:1021D000F0BD70B50D4606460024FFF782FF48B9F2
:1021E0003168280C08623168A8B248623046FFF7AF
:1021F00093FF00B10124204670BD70B50D46064620
:102200000024FFF76EFF48B93168280C88613168F7
:10221000A8B2C8613046FFF77FFF00B10124204615
:1022200070BD012000F0B8FBFBE7000010B55020A6
:1022300080F31188BFF34F8FBFF36F8F01F004F865
:1022400018B104494FF080500860002080F31188D5
:1022500010BD000004ED00E030B593B028216846C1
:10226000FDF7D7FF14210AA8FDF7D3FF00240F9430
:102270000920012110940090119412944FF48030A1
:1022800004910691CDE901040225CDE907504FF4F0
:10229000E01009906846FEF781FE08B172B6FEE7CD
:1022A0000F20CDE90A054FF48060CDE90C400221F2
:1022B0000AA80E94FEF760FD08B172B6FEE703208F
:1022C0000F904FF400701090800111900FA8FEF74E
:1022D000DDFC002801D072B6FEE713B030BD7047B8
:1022E0000148FFF716BB0000340300200148FFF748
:1022F00010BB00007C0300200148FFF70ABB000070
:1023000008040020F0B50268164B174C174D4FF02B
:102310008047984205D0B84203D0A04201D0A842DD
:1023200003D122F070064A683243984205D0B84281
:1023300003D0A04201D0A84203D122F44074CA685D
:1023400022434C6922F08002224302608A68C26202
:102350000A688262984201D10969016301214161E1
:10236000F0BD0000002C01400004004000080040C7
:1023700010B5846842EA032224F47F440A432243CE
:10238000826010BD826822F070020A4342F00701A9
:102390008160704710B5036A046A24F00104046286
:1023A000846924F0F00444EA021423F00A020A4388
:1023B0008461026210BD10B5036A23F0100303624A
:1023C0008369046A23F4704343EA023224F0A003D1
:1023D00043EA01118261016210BD000070B504463C
:1023E00000680169E26821F44051114301612169EB
:1023F000A0680843616908432168CA6841F20C6318
:102400009A430243CA6020684169A26921F440717D
:10241000114341611E492068884202D1FEF778FDD0
:1024200001E0FEF765FD00EBC00101EB0012606802
:1024300064218000B2FBF0F3B3FBF1F36FF01806F8
:102440007343B2FBF0F5B2FBF0F605EB83053223E4
:1024500003EB0515B5FBF1F5B6FBF1F605F0F0055C
:1024600005EB0615B2FBF0F6B2FBF0F0B0FBF1F0B5
:102470006FF01802504306EB800003EB0010B0FB36
:10248000F1F0216800F00F002844886070BD000062
:1024900000380140FEE7000070B52A4D4FF480740B
:1024A000002221462846FEF7C4FA0122D10326481D
:1024B000FEF7BFFA0220FEF7B5F9012221462846B1
:1024C000FEF7B7FA00F04CF94821002000F0D6F9E9
:1024D0006521012000F0D2F96C21022000F0CEF934
:1024E0006C21032000F0CAF96F21042000F0C6F926
:1024F0002121052000F0C2F92121062000F0BEF9BB
:102500002121072000F0BAF90124002210212846D9
:10251000FEF78FFAE42000F019F8012000F012F91C
:10252000E0B200F013F8012210212846FEF781FAEC
:10253000012000F007F90A2000F02EFA641CFF2C9D
:10254000E3DB70BD00080140000C014070B5114E86
:1025500005460024002220213046FEF76AFAE807EB
:1025600001D0012200E0002280213046FEF761FA0E
:102570006D08012000F0E6F8012220213046FEF728
:1025800058FA012000F0DEF8641CE4B2082CE1D314
:1025900070BD000000080140644F00203870787062
:1025A000B870FFF779FF00F023F9642000F0F4F928
:1025B000DFF87C810A26404698F8001069B101785E
:1025C00001293ED0007802287AD05AA1002000F0DC
:1025D00077F9642000F0E0F9EDE73878B0FBF6F029
:1025E0003030C1B2002000F049F93878B0FBF6F184
:1025F00006FB11010120303100F040F93A210220A0
:1026000000F03CF97878B0FBF6F03030C1B203202E
:1026100000F034F97878B0FBF6F106FB11010420E4
:10262000303100F02BF93A21052000F027F9B87875
:10263000B0FBF6F03030C1B2062000F01FF9B878D8
:1026400034E03A4CE41C2078B0FBF6F03030C1B2F4
:10265000002000F013F92078B0FBF6F106FB110121
:102660000120303100F00AF93A21022000F006F989
:102670006078B0FBF6F03030C1B2032000F0FEF815
:102680006078B0FBF6F106FB11010420303100F058
:10269000F5F83A21052000F0F1F8A078B0FBF6F04B
:1026A0003030C1B2062000F0E9F8A078B0FBF6F1B6
:1026B00006FB11010720303100F0E0F889E7FFE761
:1026C0000A211F48FDF7B0FF1D48FDF7EDFE80050C
:1026D00003D51B48FDF7EAFE04462046FDF778FDCA
:1026E0003121002000F0CAF82E21012000F0C6F8A8
:1026F00000254FF47A790224FDF760FD90FBF6F196
:1027000006FB11003030C1B2E0B200F0B7F8641C33
:10271000082CF1DB4C46484600F03EF9204600F01C
:102720003BF96D1C082DE6DB53E70000100000208C
:10273000070000204552524F522121210000000085
:10274000F002002010B50446FEF7CCFB0349B0FBB5
:10275000F1F16143491EFDD210BD000000093D00AA
:1027600070B5214D002210212846FEF762F91F4C5A
:102770006079FFF7EBFE0120FFF7E4FF0122102153
:102780002846FEF756F96420FEF74CF80022102187
:102790002846FEF74EF9E078FFF7D8FE0120FFF754
:1027A000D1FF6078FFF7D2FE012210212846FEF704
:1027B00040F90120FFF7C6FF002210212846FEF74E
:1027C00038F92079FFF7C2FE0120FFF7BBFFA078A0
:1027D000FFF7BCFE012210212846FEF72AF9BDE8CA
:1027E00070400120FFF7AEBF00080140000000204C
:1027F00070B50A211348FDF717FF1248FDF754FE84
:10280000800503D50F48FDF751FE04462046FDF72D
:10281000DFFC00250A260024FDF7D0FC90FBF6F132
:1028200006FB11003030C1B2E0B200F027F8641CA2
:10283000082CF1DB3C2000F0AFF86D1C082DEADB22
:1028400070BD0000F002002010B50A4C00221021DB
:102850002046FEF7EEF80120FFF774FF06480078E7
:10286000FFF774FE20460122BDE810401021FEF75C
:10287000E0B80000000801400000002070B52030E2
:102880000E4EC5B20C46002210213046FEF7D1F89C
:102890000120FFF757FF2846FFF758FE0120FFF7FA
:1028A00051FF2046FFF752FE012210213046FEF76D
:1028B000C0F8BDE87040FFF7C7BF00000008014046
:1028C00070B520300F4E0C46C5B2002210213046A4
:1028D000FEF7AFF80120FFF735FF2846FFF736FE79
:1028E00003E000BFFFF732FE641C20780028F9D116
:1028F000012210213046FEF79CF8BDE87040FFF73A
:10290000A3BF0000000801400907090E002804DBEE
:1029100000F1E02080F80014704700F00F0000F193
:10292000E02080F8141D704702E008C8121F08C19B
:10293000002AFAD170477047002001E001C1121F40
:10294000002AFBD1704700000F4800214170017040
:102950008170C170017141718171C171FEF77CF8A4
:10296000FFF77AFCFFF7DAF9FFF736FAFFF76CFAB0
:10297000FFF7AAFAFFF7E6FAFFF774F9FFF79AF9FB
:1029800000F011F8FEE700000600002001460020DC
:10299000842900D0C81C704710B500B9012000F090
:1029A00015FB002010BD10B500F036FB002010BD57
:1029B0007FB50D4604464169B0F9080081B1A169AF
:1029C00071B1FFF7E3FFD4E905128DE80700D4E900
:1029D00000102B46226900F00CFC039004B070BD7F
:1029E000FFF7D4FF03A9CDE90001208A2B4682B26C
:1029F000D4E9001000F0D0FB012801D00020EDE761
:102A00000398EBE72DE9F041184C0F46054666693F
:102A10002068001D00F016FA38B9206890F82C10D4
:102A200001208840A1698143A161681C07D137B1A9
:102A30002168BDE8F0410E48091D00F047BA206842
:102A40003544B5424560216805D2A068BDE8F04133
:102A5000091D00F023BA6068091D00F01FFA206B01
:102A6000854200D22563BDE8F081000038000020D7
:102A70002C0500202DE9F041054600F033FA2E4CDC
:102A80002069401C206120682C4F10B1E06940B3E0
:102A90002DE025602069012829D1002606EB86005B
:102AA00007EB800000F0ECF9761C072EF6D32348E4
:102AB0008C3000F0E5F92148A03000F0E1F91F4822
:102AC000B43000F0DDF91D48C83000F0D9F91B48DA
:102AD000DC3000F0D5F919488C3060601430A0600B
:102AE00005E02068E96AC06A884200D82560E06A8B
:102AF000401CE062E96A0120A26988401043A0619D
:102B000001EB810007EB8000291D00F0DFF900F0E8
:102B100009FAE06900280CD02068E96AC06A884296
:102B200007D207494FF080500860BFF34F8FBFF3C3
:102B30006F8FBDE8F08100003800002050040020B5
:102B400004ED00E010B5044690F8510058B101289A
:102B50000CD002280FD0502080F31188BFF34F8F84
:102B6000BFF36F8FFEE7206B00F0F0F92046BDE861
:102B7000104000F0EBB910BD10484FF4406142071F
:102B800006D0C01D0D4920F00700411AC1F5406173
:102B90000B4A00230144C2E900030839103A21F02E
:102BA000070111604B600B600B1AC0E900139360C2
:102BB0004FF000405360D060704700004005002097
:102BC00084000020144E154CA6F1C8074FF0805821
:102BD000DFF84C9012E000BF00F084F9F068C5689F
:102BE000281D00F02FF92069401E2061E068401E7A
:102BF000E06000F097F92846FFF7A4FFE06800289E
:102C0000EAD138680128F9D9C9F80080BFF34F8F9D
:102C1000BFF36F8FF2E70000180500203800002096
:102C200004ED00E02DE9F0479A46DDE9098481468C
:102C30006FF00303206B03EB82021044089D20F029
:102C40000706700707D0502080F31188BFF34F8F1D
:102C5000BFF36F8FFEE723180A5C83F834200A5C09
:102C600012B1401C1028F6D3002784F84370072DBA
:102C700000D30625E562C4E91157201D00F00BF9C9
:102C800004F1180000F007F92461C5F1070064623F
:102C9000A061E76484F8507052464946304600F01F
:102CA000BFF82060B8F1000F01D0C8F80040BDE8BF
:102CB000F087000030B5114900E011460A688242F1
:102CC000FBD34B685C18844203D1406818444860C9
:102CD000084643681C18944209D1084C103C2468EB
:102CE000A24209D052681A4442600A68126802601F
:102CF000814200D0086030BD0460F9E78400002004
:102D000006484168096829B14168C968C9684968C5
:102D1000016370474FF0FF31FAE7000038000020F0
:102D200008484068401C4FF0500080F3118804D0E0
:102D3000BFF34F8FBFF36F8FFEE7BFF34F8FBFF32C
:102D40006F8FFEE78C0000202DE9F041054600273B
:102D500000F098F9314E306808B9FFF70DFFF068C0
:102D600005424BD1C5B3083568070ED005F0070002
:102D7000C0F108000544680707D0502080F311888F
:102D8000BFF34F8FBFF36F8FFEE72DB3706885429F
:102D900034D82248103001460C6801E020460C4629
:102DA0006168A94202D221680029F7D131688C42BA
:102DB00024D007682168016060680837411B10292A
:102DC0000FD96019420708D0502080F31188BFF353
:102DD0004F8FBFF36F8FFEE710E041606560FFF734
:102DE00069FF61687068401A7060B268904200D2F2
:102DF000B060F06801430020C4E9000100F088FAE7
:102E0000780707D0502080F31188BFF34F8FBFF3AE
:102E10006F8FFEE73846BDE8F081000074000020A7
:102E200010B5031F4FF080741C601B1F21F00101BF
:102E30001960191F024B0B60143940380A6010BD2D
:102E4000212D0008D0E9013201699A60D0E90123FF
:102E50005A604A68824201D182684A600022026157
:102E60000868401E0860086870470000034B036054
:102E700003F1540008608020106070479C0000201F
:102E800000F108014FF0FF32C0E90112C160016199
:102E900000210160704700210161704730B50B6867
:102EA0005A1C02D000F1080202E0026904E0224646
:102EB000546825689D42FAD953684B6099608A60CE
:102EC000516008610168491C016030BD42684A6078
:102ED00093688B6093685960916008610168491C30
:102EE00001607047502080F31188BFF34F8FBFF30C
:102EF0006F8F0A494868401C486001280CD1084877
:102F0000006810F0FF0F07D0502080F31188BFF346
:102F10004F8FBFF36F8FFEE7704700008C000020DB
:102F200004ED00E00849486828B1401E486001D11E
:102F300080F311887047502080F31188BFF34F8FC2
:102F4000BFF36F8FFEE700008C00002070B50028F3
:102F500027D0144DA0F108046168E868014207D148
:102F6000502080F31188BFF34F8FBFF36F8FFEE7C0
:102F700022683AB1502080F31188BFF34F8FBFF31E
:102F80006F8FFEE78143616000F07CF860686968DC
:102F9000084468602046FFF78DFEBDE8704000F0F1
:102FA000B7B970BD740000204FF0E020002101612E
:102FB000816105494FF47A720968B1FBF2F1491E4B
:102FC00041610721016170473400002010B5020003
:102FD00014D00F48806B38B1502080F31188BFF3B4
:102FE0004F8FBFF36F8FFEE700F04CF800211046C3
:102FF000FFF708FD00F08CF9002807D105494FF0D4
:1030000080500860BFF34F8FBFF36F8F10BD00007B
:103010003800002004ED00E010B586B000240394D1
:1030200005AA04A903A80494FFF720FFDDE9030122
:103030000094CDE9011000230EA11048059A00F07C
:10304000D8F80F490028486311D0502080F3118828
:10305000BFF34F8FBFF36F8F4FF0FF300863012036
:10306000C8614C6106B0BDE8104000F041B806B040
:1030700010BD000049444C4500000000C52B00086D
:10308000380000200248816B491C816370470000B2
:10309000380000201448816B11B101214162704752
:1030A000002141628169B1FA81F1C1F11F0101EB97
:1030B00081020E4951F822306BB101EB820101F11E
:1030C00008034A6852684A609A4201D152684A60CD
:1030D000D16801607047502080F31188BFF34F8F93
:1030E000BFF36F8FFEE7000038000020500400207F
:1030F0001CB5264908780190FF20087008788DF8E3
:1031000000009DF800009DF8002000F0F0009042C3
:1031100007D0502080F31188BFF34F8FBFF36F8F1C
:10312000FEE79DF800001A4B00F0500018700720D1
:10313000986005E09DF8002052008DF80020401EA8
:103140009DF800201206F5D49860032807D050207F
:1031500080F31188BFF34F8FBFF36F8FFEE74FF4FB
:1031600040709860019808700A48016841F4700145
:103170000160016841F070410160FFF715FF002018
:103180005860FCF7CFFF00201CBD000000E400E009
:103190008C00002020ED00E02DE9FF5F8346DDE993
:1031A0000E87994616468A469000FFF7CDFD05002A
:1031B0001CD05420FFF7C8FD040014D00020256364
:1031C00084F85100CDE90240CDE900874B463246F4
:1031D00051465846FFF726FD2046FFF74BFC0120DD
:1031E00004B0BDE8F09F2846FFF7B0FE4FF0FF3077
:1031F000F6E7F0B585B0DDE90B640A9DA6B1DCB158
:10320000542700972663022684F85160002604AFF5
:10321000CDE90246CDE90057FFF704FD2046FFF750
:1032200029FC049805B0F0BD502080F31188BFF34D
:103230004F8FBFF36F8FFEE7502080F31188BFF3ED
:103240004F8FBFF36F8FFEE72DE9F0412E4C002723
:10325000A06B40B1206A401C2062606A00B1012767
:103260003846BDE8F0816669761C666113D16068F6
:10327000006838B1502080F31188BFF34F8FBFF33F
:103280006F8FFEE76068A1686160A060A06A401C63
:10329000A062FFF735FD206BDFF87080864209D30E
:1032A0006068006880B16068C068C5686868864208
:1032B0000DD220632068C06A00EB800158F821001D
:1032C0000128CAD90127C8E74FF0FF30F1E7281DD0
:1032D000FFF7B8FDA86A18B105F11800FFF7B2FDB5
:1032E000E86A0121A26981401143A16100EB8001DC
:1032F00008EB8100291DFFF7E9FDE86A2168C96A2A
:103300008842CDD30127CBE73800002050040020AD
:103310002DE9F0472C4D00242746A86B38B1FFF764
:10332000E1FDA86B401EA863A86B40B146E05020A9
:1033300080F31188BFF34F8FBFF36F8FFEE72969CA
:10334000224E0120D1B3A6F1B40980463068E8B11D
:10335000F068C46804F11800FFF774FD201DFFF742
:1033600071FDE06AAA6908FA00F11143A96100EB56
:10337000800109EB8100211DFFF7A8FDE06A2968A3
:10338000C96A8842E2D3C5F82480DFE70CB1FFF7B1
:10339000B7FC2C6A44B14646FFF756FF00B16E6297
:1033A000641EF9D100202862686A38B108490127F3
:1033B00038070860BFF34F8FBFF36F8FFFF7B2FD81
:1033C0003846BDE8F08700003800002004050020E2
:1033D00004ED00E06434000823220008000000002F
:1033E000000000008000000000000000000000005D
:1033F0006034000899250008020000000000000069
:103400008000000000000000000000005C340008A4
:10341000A91F00080200000000000000800000005A
:1034200000000000000000007034000825030008C0
:10343000020000000000000080000000000000000A
:103440000000000000000000000000000102030472
:10345000060708090000000001020304525443005B
:103460005646440064656661756C745461736B0004
:10347000427574746F6E00009834000800000020DC
:103480009C00000028290008343500089C0000201A
:10349000A414000038290008E807FFE0E4E9000070
:1034A000000000000000000000000000000000001C
:1034B000000000000000000000000000000000000C
:1034C0000100000010000000000000000024F400D3
:1034D00000000000000000000000000000000000EC
:1034E00000000000000000000000000000000000DC
:1034F00000000000000000000000000000000000CC
:1035000000000000000000000000000000000000BB
:1035100000000000000000000000000000000000AB
:103520000000000000000000AAAAAAAA00000000F3
:043530000000000097
:04000005080000ED02
:00000001FF
